:1000000000000420C1010000ED010000ED0100002E
:10001000ED010000ED010000ED010000ED01000028
:10002000ED010000ED010000ED010000ED01000018
:10003000ED010000ED010000ED010000ED01000008
:10004000ED010000ED010000ED010000ED010000F8
:10005000ED010000ED010000ED010000ED010000E8
:10006000ED010000ED010000ED010000ED010000D8
:1000700071320000ED010000ED010000ED01000013
:10008000ED010000ED010000ED010000ED010000B8
:10009000ED010000ED010000ED010000ED010000A8
:1000A000ED010000ED010000ED010000ED01000098
:1000B000ED010000ED010000ED010000ED01000088
:1000C000ED010000ED010000ED010000ED01000078
:1000D000ED010000ED010000ED010000ED01000068
:1000E000ED010000ED010000ED010000ED01000058
:1000F000ED010000ED010000ED010000ED01000048
:10010000ED010000ED010000ED01000010B5054C0F
:10011000237833B9044B13B10448AFF300800123B3
:10012000237010BD8000002000000000E4460000A5
:1001300008B5034B1BB103490348AFF3008008BD6A
:100140000000000084000020E4460000154B002B56
:1001500008BF134B9D46A3F5803A00218B460F46FE
:100160001348144A121A03F05BFC0F4B002B00D00B
:1001700098470E4B002B00D0984700200021040028
:100180000D000D48002802D00C48AFF3008003F0AA
:1001900023FC2000290003F0BDFB03F009FC00BF95
:1001A0000000080000000420000000000000000023
:1001B00080000020DC0000200000000000000000A3
:1001C000064880470649074A074B9A42BEBF51F886
:1001D000040B42F8040BF8E7FFF7B8FFCD0200006C
:1001E000F04600000000002080000020FEE700BF75
:1001F00080B582B000AF00F025F878600A4BD3F8E4
:1002000008311B0AC3F308033B603B6801337A687B
:10021000B2FBF3F37B60054A7B6813607B6818468A
:100220000837BD4680BD00BF00400E4008000020DA
:1002300080B400AF024B1846BD465DF8047B7047A2
:10024000005A620280B483B000AF164BD3F89430EA
:1002500003F00703032B08D0042B02D0022B08D095
:100260000BE0114B1B687B600BE04FF400437B609D
:1002700007E00E4B1B687B6003E00D4B1B687B6047
:1002800000BF084BD3F800311B0A03F01F030133F2
:100290007A68B2FBF3F318460C37BD465DF8047B71
:1002A000704700BF00400E40040000200000002006
:1002B0000C00002080B400AF034B1B681846BD46FD
:1002C0005DF8047B704700BF0000002080B400AFE1
:1002D000074B084A9A60064BD3F88830044A43F427
:1002E0007003C2F8883000BFBD465DF8047B7047DC
:1002F00000ED00E00000000080B400AF4FF40043C8
:100300001846BD465DF8047B704780B400AF4FF4DB
:100310007A731846BD465DF8047B704780B400AF21
:10032000034B1B681846BD465DF8047B704700BF51
:100330000400002080B483B000AF78603960FEE72D
:1003400080B487B000AFF860B9607A60FB6803F1F1
:100350000473DA00BB6813449B007B617B697A6895
:100360001A6000BF1C37BD465DF8047B704780B43F
:1003700085B000AF786039607B6803F10473DA0000
:100380003B6813449B00FB60FB681B6818461437EE
:10039000BD465DF8047B704780B582B000AF7860E1
:1003A0007B681F2B04D940F64E210548FFF7C2FF9A
:1003B00001227B6802FA03F318460837BD4680BD68
:1003C0008444000080B500AF00BF12210348FFF74E
:1003D000CEFF0346002BF8D100BF80BD04300E4095
:1003E00080B500AFFFF7EEFF034B5B681B0C03F01B
:1003F0000303DBB2184680BD00300E4080B584B0E8
:1004000000AF78600123FB607B68124A934204D8F6
:100410000023FB600023BB6008E07B680E4A934228
:1004200002D80123BB6001E00223BB60FA681021FF
:100430000A48FFF785FF094BD3F8003123F080729B
:10044000BB681B0605491343C1F8003100BF1037D4
:10045000BD4680BD0048E8010090D00300400E403A
:1004600080B483B000AF054B1B687B607B68184687
:100470000C37BD465DF8047B704700BF10000020BC
:1004800080B582B000AFFFF7DDFE7860064BD3F891
:1004900000311B0A03F01F0301337A6802FB03F3E8
:1004A00018460837BD4680BD00400E4080B582B07A
:1004B00000AF0F4800F066FB0346FB70FB78072B8C
:1004C00005D0092B07D1FFF7BDFE78600BE0FFF7E1
:1004D000C7FF786007E000237B6040F69A2105485B
:1004E000FFF728FF00BF7B6818460837BD4680BD70
:1004F00006000E00E844000080B584B000AF7860CC
:100500007B68002B1CD1204800F03CFB0346FB72AB
:1005100000BFFB7A013B072B28D801A252F823F039
:100520004F0500006D0500006D0500005D05000031
:100530006D0500006D050000550500006505000013
:1005400040F6BA211148FFF7F5FE002317E000231B
:10055000FB6013E0FFF784FFF8600FE0FFF7AAFEEF
:10056000F8600BE0FFF78CFFF86007E00023FB600A
:1005700040F6D1210548FFF7DDFE00BFFB681846B5
:100580001037BD4680BD00BFB8003200E84400000F
:1005900080B584B000AF78603960204B5B6803F0B1
:1005A0004073FB600023BB6012E01D4ABB68DB00A8
:1005B00013441A793B68DBB29A4206D1184ABB68E9
:1005C00052F833307A689A4206D9BB680133BB606F
:1005D000BB68042BE9D900E000BFBB68052B07D13D
:1005E0000323FB6040F6D8310E48FFF7A3FE05E079
:1005F0000B4ABB68DB0013445B79FB60FB681B069E
:10060000FB60064B5B6823F040720449FB681343B0
:100610004B6000BF1037BD4680BD00BF00000E40DC
:10062000FC440000E844000080B582B000AF0E4BEF
:100630001B6C002B14BF01230023FB710A4B41F6F6
:1006400071321A64FFF7F4FD034600211846FFF7E4
:100650009FFFFB79002B02D0034B00221A6400BFDE
:100660000837BD4680BD00BF00000E4080B584B095
:1006700000AF786039600C4B1B6C002B14BF01235A
:100680000023FB73084B41F671321A6439687868AD
:10069000FFF77EFFFB7B002B02D0034B00221A6486
:1006A00000BF1037BD4680BD00000E4080B487B04B
:1006B00000AF78600F237B617B6803333B617B690C
:1006C000FB60FA683B69934228BF1346BB60BB6876
:1006D0001B07BB60BB6818461C37BD465DF8047B32
:1006E0007047000080B400AF044B5B6A1B0903F045
:1006F00003031846BD465DF8047B704700400E407A
:1007000080B483B000AF7860074B5B6A23F030029F
:100710007B681B01044913434B6200BF0C37BD4685
:100720005DF8047B704700BF00400E4090B585B077
:1007300000AF78600023BB607B683C4A93420BD0DB
:100740003B4A934208D03B4A934205D040F6C94108
:100750003948FFF7EFFD00E000BF786800F012FABB
:100760000346FB607B68314A93420CD0304A934287
:1007700010D0304A934214D1304BD3F8803003F07C
:100780000703FB6013E02D4BD3F8843003F007031D
:10079000FB600CE0294BD3F8883003F00703FB60C3
:1007A00005E040F6F8412448FFF7C4FD00BFFB68B0
:1007B000042B2ED801A252F823F000BF0D08000030
:1007C000D1070000D9070000E9070000E107000099
:1007D000FFF792FDB86024E0FFF7A0FDB86020E0CD
:1007E000FFF793FDB8601CE0FFF702FD0446134BD2
:1007F000D3F800311B0E03F0010301331846FFF755
:10080000CBFD0346B4FBF3F3BB600AE00023BB60FF
:1008100007E00023BB6040F64A510748FFF78AFD16
:1008200000BFBB6818461437BD4690BD03002000CA
:100830000500240002001E00E844000000400E40B5
:1008400080B483B000AF78600A4BD3F8443103F032
:100850000103002B08D100BF064BD3F840217B6871
:100860001340002BF8D100E000BF0C37BD465DF807
:10087000047B704700400E4080B400AF00BFBD460F
:100880005DF8047B704780B400AF00BFBD465DF8E3
:10089000047B704780B586B000AF78600B46FB7074
:1008A00000233B617B681B0A03F00F03013B092B0C
:1008B00032D801A252F823F0E1080000ED08000050
:1008C0001909000019090000E7080000F3080000FA
:1008D000FD080000190900000709000013090000C5
:1008E0001A4B7B611EE01A4B7B611BE0194B7B614D
:1008F00018E0194B7B6101233B6113E0174B7B61CF
:1009000010233B610EE0164B7B614FF480333B615B
:1009100008E0144B7B6105E041F23C111248FFF7FF
:1009200009FD10E07B681B0B03F01F03FB603B69B4
:10093000002B02D03869FFF783FFFB781A46F9686D
:100940007869FFF7FDFC1837BD4680BD00400E40BA
:10095000B0400E40C0400E40E0400E40E8400E4027
:10096000F0400E4050410E40E844000080B584B095
:1009700000AF78607B6803F47813B3F5A01F7DD0D7
:10098000B3F5A01F1AD8B3F5202F50D0B3F5202F00
:1009900008D8B3F5003F4ED0B3F5802F38D0002BE8
:1009A00032D0D8E0B3F5602F00F0C880B3F5801FD7
:1009B00000F0C880B3F5402F4CD0CCE0B3F5001F59
:1009C00000F08B80B3F5001F0AD8B3F5D01F00F0FC
:1009D0008980B3F5F01F4CD0B3F5B01F5CD0BAE0FE
:1009E000B3F5381F6AD0B3F5381F04D8B3F5101F1C
:1009F00000F09F80AFE0B3F5401F00F08680B3F5B4
:100A0000481F00F0A380A6E0FFF71CFCF860AAE0F6
:100A1000FFF718FCF860564BD3F80C311B0AC3F3F0
:100A200008030133FA68B2FBF3F3FB609BE0FFF7C6
:100A300009FCF86097E0FFF705FCF8604C4BD3F831
:100A400008311B0AC3F308030133FA68B2FBF3F35E
:100A5000FB6088E0FFF7F6FBF860454BD3F81431F4
:100A60001B0A03F01F030133FA68B2FBF3F3FB60C8
:100A700079E04048FFF75AFEF86074E03E48FFF71F
:100A800055FEF8603A4BD3F8303103F00303FA68AF
:100A900022FA03F3FB6066E03648FFF747FEF86092
:100AA000334BD3F8203103F00F031846FFF774FCE3
:100AB0000246FB68B3FBF2F3FB6054E02D48FFF7FE
:100AC00035FEF8602A4BD3F820311B0903F00303ED
:100AD000FA6822FA03F3FB6045E02848FFF726FE98
:100AE000F86040E02548FFF721FEF860204BD3F87E
:100AF00028311B0903F003031846FFF74DFC02469B
:100B0000FB68B3FBF2F3FB602DE01C48FFF70EFE21
:100B1000F860174BD3F828311B0A03F003030433A2
:100B20001846FFF739FC0246FB68B3FBF2F3FB60A3
:100B300019E01148FFF7FAFDF86014E0FFF7B6FC82
:100B4000F86010E0FFF78CFCF8600CE00020FFF785
:100B5000D3FCF86007E00023FB6041F26221084803
:100B6000FFF7E8FB00BFFB6818461037BD4680BDA5
:100B700000400E4002001E0005002400030020007B
:100B8000E844000080B584B000AF78600123FB73B7
:100B90007B6803F00F03BB60BB68013B072B00F2CF
:100BA000C48001A252F823F0C90B00001F0C000002
:100BB0004F0C00002B0D0000950C0000C50C000030
:100BC0002B0D0000E90C00005E4BD3F8943003F0CD
:100BD0000703023B052B1ED801A252F823F000BFE9
:100BE000050C0000FF0B0000F90B00000B0C0000CF
:100BF000170C0000110C00000223FB730EE003230E
:100C0000FB730BE00423FB7308E00B23FB7305E08D
:100C10000C23FB7302E00523FB7300BF8DE0494BFF
:100C2000D3F8803003F00703022B06D0042B07D043
:100C3000012B08D10323FB7308E00223FB7305E0BB
:100C40000A23FB7302E00123FB7300BF75E03D4BF9
:100C5000D3F8843003F00703013B032B16D801A21D
:100C600052F823F0750C00007B0C0000870C00008C
:100C7000810C00000323FB730BE00223FB7308E0ED
:100C80000A23FB7305E00623FB7302E00123FB73D9
:100C900000BF52E02B4BD3F8883003F00703022B40
:100CA00006D0042B07D0012B08D10323FB7308E0E7
:100CB0000223FB7305E00A23FB7302E00123FB73AD
:100CC00000BF3AE01F4B1B6F03F00103002B04D061
:100CD000012B05D10923FB7305E00723FB7302E019
:100CE0000123FB7300BF28E0164BD3F85C3103F0FF
:100CF0003003102B0CD0102B02D8002B05D010E0A5
:100D0000202B08D0302B09D00BE00123FB730BE024
:100D10000723FB7308E00423FB7305E00823FB7340
:100D200002E00123FB7300BF07E00023FB7341F2E5
:100D300076610548FFF7FEFA00BFFB7B18461037C7
:100D4000BD4680BD00400E40E844000080B58AB03A
:100D500000AF78600B46FB7003237B62032387F8A8
:100D600023300023BB6100237B617B68112B19D1E9
:100D7000FB78042B03D1FFF79DFA78610BE0FB7839
:100D8000052B08D100F08AF90246BB4B9A4202D9E2
:100D900000F084F978617B69002B03D00021786929
:100DA00000F02CFE7B6803F00F033B613B69013BC5
:100DB000072B00F2578101A252F823F0DD0D00004D
:100DC000E90E00001B0F000065100000FD0E000082
:100DD000BD0F000065100000E70F0000FB78023B2C
:100DE0000A2B49D801A252F823F000BF190E0000C7
:100DF000250E0000310E0000430E0000790E0000A9
:100E0000790E0000790E0000790E00006D0E0000D2
:100E1000550E0000610E000004237B62002387F85A
:100E200023302FE003237B62012387F8233029E05E
:100E300002237B62022387F823309048FFF7DEFA13
:100E400020E001237B62032387F823308B48FFF7E0
:100E5000D5FA17E005237B62032387F8233011E0DE
:100E600007237B62062387F823300BE041F23471BD
:100E70008348FFF75FFAFBE041F239718048FFF7E2
:100E800059FAF5E097F82330062B06D097F823306F
:100E900001220121184600F08FF9FFF7C5FBFFF78B
:100EA000EBFC7B69002B01D0FFF78CFA754A7B6A5B
:100EB00053677548FFF75AFD03461846FFF79EFA39
:100EC000FFF796F9F860FFF78BFA03461946F868C2
:100ED000FFF7CCFB7B69002B03D10121002000F040
:100EE0008DFDFFF7D0FCC3E0684BBB61FB78062BA0
:100EF00004D141F275716248FFF71CFABB69002BFF
:100F000001D0BB6900E0624BBB61FB78062B04D1CA
:100F100041F289715A48FFF70DFABB69002B01D0E5
:100F2000BB6900E05B4BBB61FB78013B092B3BD805
:100F300001A252F823F000BF610F0000670F00000C
:100F4000770F0000A90F0000A90F0000870F000015
:100F5000A90F0000A90F0000A90F0000A30F0000B7
:100F60000023FB6126E001220121002000F024F98A
:100F70000223FB611EE001220121012000F01CF987
:100F80000123FB6116E0FFF733F903461846FFF72C
:100F900035FA012202214048FFF7D2F90323FB6111
:100FA00008E00423FB6105E041F2AE713448FFF72D
:100FB000C1F95DE0BB69FA691A6059E0FB78072B5B
:100FC00002D0092B04D007E02E4B00221A6709E05B
:100FD0002C4B01221A6705E041F638012848FFF73B
:100FE000A9F945E044E0FB78013B072B28D801A292
:100FF00052F823F0151000004110000041100000CD
:101000002B10000041100000411000001B100000D8
:101010003B1000000023FB6118E0012201210420A5
:1010200000F0CAF80123FB6110E001220121022037
:1010300000F0C2F80223FB6108E00323FB6105E036
:1010400041F696010E48FFF775F911E00D4BD3F804
:101050005C3123F03002FB691B010A491343C1F8DC
:101060005C3105E041F66D110548FFF763F900BFFB
:101070002837BD4680BD00BF002D31010148E80181
:10108000E844000000400E4000250A0080400E4069
:1010900088400E4084400E40B0400E4080B400AF07
:1010A000034B1B681846BD465DF8047B704700BFC4
:1010B0000C00002090B585B000AF78601120FFF7DC
:1010C00061FD0346042B04D141F61D413748FFF76B
:1010D00031F901220021022000F06EF87B685B7874
:1010E000002B07D17B689B78002B03D17B68DB78D2
:1010F000002B04D041F65B412C48FFF71BF900237D
:10110000FB607B681B7C012B04D14FF4E351274823
:10111000FFF710F97B681B7C022B01D10123FB60D8
:10112000234B5B6A23F001022149FB6813434B62A6
:101130007B681B781A4608211E48FFF701F97B6877
:101140009B88DB027A68527A1146194A0B43D362B4
:10115000174B1B6B03F07F627B68DB88DB0213435A
:101160007A68927A1A437B681B7ADB0142EA0304AD
:101170007B681B7A1846FFF799FA03460C4A23430B
:1011800013637B685B7B1A037B689B7B1B011343A8
:101190007A68D27B1A437B681B7B1B040449134388
:1011A0004B6300BF1437BD4690BD00BFE84400004C
:1011B00000400E4024400E4080B588B000AF03468A
:1011C000FB710B46BB7113467B71FB79042B3CD83A
:1011D00001A252F823F000BF3512000023120000D4
:1011E000FF110000ED1100001112000001237B61CE
:1011F00002233B610123FB610023BB612BE004233D
:101200007B6108233B610323FB610223BB6122E076
:1012100010237B6120233B610523FB610423BB6119
:1012200019E040237B6180233B610723FB61062398
:10123000BB6110E04FF480737B614FF400733B613E
:101240000923FB610823BB6105E041F66551454870
:10125000FFF770F883E0BB79002B64D00023FB73A9
:10126000FB79022B1AD1FFF73DFA0346002B15D16B
:101270003D4BDB6B03F48063002B04D141F67451CA
:101280003848FFF757F80123FB73384B5B6A03F0CC
:101290000103012B02D10120FFF732FA334A7B69A7
:1012A000136600BFB9693248FFF761F80346002BA7
:1012B000F8D07B79002B52D000BFF9692C48FFF79A
:1012C00056F80346002BF8D0FB79022B47D1FB7B65
:1012D000002B44D0254B5B6A03F00103012B05D1A1
:1012E00001222021022000F087F903E000210220E2
:1012F00000F028F9022000F03DF8B860012200213A
:101300000220FFF759FFB968022000F071F8174A70
:101310007B69136600BFF9691548FFF728F8034693
:10132000002BF8D01BE0114A3B69136600BF0F4B3E
:10133000D3F890300121BA6901FA02F21340002B70
:10134000F5D17B79002B0AD000BF084BD3F8903041
:101350000121FA6901FA02F21340002BF5D120377E
:10136000BD4680BDE844000000300E4000400E4005
:1013700090400E4080B584B000AF0346FB71FB790E
:10138000013B032B23D801A252F823F09D13000048
:10139000C1130000A9130000B5130000124B1B6A13
:1013A000C3F30803FB601AE00F4B1B6903F07F03D4
:1013B000FB6014E00C4B9B6903F07F03FB600EE0C5
:1013C000094BD3F89C30C3F30A03FB6007E000230A
:1013D000FB6041F6F1510548FEF7ACFF00BFFB682A
:1013E00018461037BD4680BD00400E40E84400005E
:1013F00080B584B000AF03463960FB71FB79013BD7
:10140000032B00F28C8001A252F823F01D1400007F
:10141000D11400005D140000971400003B68B3F580
:10142000007F04D341F617614248FEF783FF3B6813
:10143000C3F308033B6000BF1A213F48FEF797FF44
:101440000346002BF8D13D4B1B6A23F4FF7323F0B6
:1014500001033A493A6813430B6266E03B687F2B0D
:1014600004D941F624613348FEF764FF3B6803F07A
:101470007F033B6000BF18212F48FEF778FF03462B
:10148000002BF8D12D4B1B6923F07F022B493B68C1
:1014900013430B6149E03B687F2B04D941F63F6160
:1014A0002448FEF747FF3B6803F07F033B6000BF23
:1014B00019212148FEF75BFF0346002BF8D11F4B93
:1014C0009B6923F07F021D493B6813438B612CE02D
:1014D0001A4BD3F8903003F00403002B04D041F6EC
:1014E0004E611448FEF726FF144B5B6A23F030036D
:1014F000124A43F0100353623B68DB0903F00F0309
:101500001846FFF7D3F8F8600C4B1A6B0C4B1340DE
:101510003A681A430949FB6813430B6305E041F637
:1015200068610448FEF706FF00BF00BF1037BD46E4
:1015300080BD00BFE844000040410E4000400E4026
:1015400000F8FF0F80B584B000AF03460A46FB7178
:101550001346BB71FB79022B04D04FF4F45123489E
:10156000FEF7E8FEFFF7BEF80346002B03D14FF469
:101570004003FB601BE0BB79202B04D0302B0AD04A
:10158000002B04D00BE04FF40003FB600FE04FF49E
:101590004003FB600BE04FF44003FB6007E0144B9B
:1015A000FB6041F69B611148FEF7C4FE00BF00BF1F
:1015B000104BD3F89020FB681340FA689A42F7D199
:1015C000FB6803F48003002B0AD00A4BD3F8A03049
:1015D00003F48063002B14BF01230023DBB200E07F
:1015E000012318461037BD4680BD00BFE844000007
:1015F000FF33E10700400E4080B582B000AF0346E4
:10160000FB710B46BB7113467B71FB79022B15D125
:10161000BB79002B07D00F4B4FF48062C3F8A82092
:101620000C4ABB7953667B79002B0DD0BA79FB79D4
:1016300011461846FFF786FF034607E041F6D161E1
:101640000548FEF777FE00E000BF01231846083783
:10165000BD4680BD00400E40E844000080B483B029
:1016600000AFEFF310833B603B687B6072B67B6832
:1016700018460C37BD465DF8047B704780B483B0D4
:1016800000AF78607B68002B00D162B600BF0C37DA
:10169000BD465DF8047B704780B500AFFEF7A8FD3E
:1016A00000BF80BD80B487B000AFF860B9607A60D9
:1016B000FB6803F10473DA00BB6813449B007B6191
:1016C0007B697A681A6000BF1C37BD465DF8047BF1
:1016D000704780B485B000AF786039607B6803F1F3
:1016E0000473DA003B6813449B00FB60FB681B68D3
:1016F00018461437BD465DF8047B704780B500AFCF
:1017000000BF12210348FFF7E4FF0346002BF8D186
:1017100000BF80BD04300E4080B500AFFFF7EEFF84
:10172000034B5B681B0C03F00303DBB2184680BD60
:1017300000300E4080B483B000AF7860044A7B680C
:10174000D36200BF0C37BD465DF8047B704700BF15
:1017500000300E4080B400AF034B5B6A1846BD46B4
:101760005DF8047B704700BF00300E4080B400AFCE
:10177000044B0022C3F8802100BFBD465DF8047B06
:10178000704700BF00400E4080B400AF044B45F6E8
:101790000E02C3F8802100BFBD465DF8047B704790
:1017A00000400E4080B483B000AF0346FB71FB796C
:1017B000C3F10203102202FA03F318460C37BD46A8
:1017C0005DF8047B7047000090B585B000AF03461C
:1017D000FB71FB79002B1BD1484BD3F89030484A62
:1017E00013601120FFF7CEF903461A46454B1A70D5
:1017F000FFF784FF444B5B681B0CDBB203F0030371
:10180000DAB2424B1A703D4B1B69414A136070E0DB
:101810003E4B1B783C4C1846FFF7C4FF0346236140
:10182000364BD3F8803103F00103FB60FFF7ACFFC8
:101830000023BB60324B1B6803F00103BA681343FB
:10184000BB602F4B1B6803F01003BA681343BB60E7
:101850002B4B1B6803F04003BA681343BB60284B53
:101860001B6803F00403BA681343BB60244B1B6876
:1018700003F48073BA681343BB60204ABB681366E5
:10188000FFF73CFF204B1B6803F01003002B18D020
:1018900000BF1A4BD3F8403103F08073002BF8D10E
:1018A000164A1B4B1B681361164B1B78052B08D17E
:1018B000184B1C68FFF730FF034619462046FEF719
:1018C000D5FE104B1B78052B05D00E4B1B78194607
:1018D0001120FFF73BFA0A4B1B6803F00103002BB2
:1018E00002D1064B02221A66FB68002B01D0FFF7DB
:1018F0003DFF00BF1437BD4690BD00BF00400E4005
:10190000A8000020AC00002000300E40AD000020F8
:10191000B00000200C00002080B582B000AFFFF7BF
:10192000EDFE104B1B681B0A03F003037B600D4B9D
:101930005B681B0C03F003033B607A683B689A42C8
:1019400006D9084B1B68074A43F01003136005E0F3
:10195000044B1B68034A23F01003136000BF0837D1
:10196000BD4680BD00300E4080B483B000AF0C4B4C
:101970001B6803F01003002B0BD00A4B1B691B0CD8
:1019800003F01F037B607B68082B02D1064B074ADC
:101990001A6000BF0C37BD465DF8047B704700BF7E
:1019A00000300E4000400E400C000020C0EA210133
:1019B00080B582B000AF0346FB71FB79002B02D0EB
:1019C0000020FFF701FFFFF7A7FF0B4B1B690A4A37
:1019D00043F00403136130BFFB79002B03D00120D7
:1019E000FFF7F2FE03E0FFF7BFFFFFF755FE00BF72
:1019F0000837BD4680BD00BF00ED00E080B584B073
:101A000000AF78600B46FB70154BD3F800311B0A12
:101A100003F01F030133BB607B68002B07D1FEF787
:101A200011FC0246BB6802FB03F3FB6001E07B682C
:101A3000FB600C4B1B78002B09D0FB680A4A9342D1
:101A400005D8FB781946022000F010F804E0FB7876
:101A50001946002000F00AF800BF1037BD4680BDCF
:101A600000400E40A4000020FF2C310190B587B04B
:101A700000AF03460A46FB711346BB711F4BD3F8F8
:101A800000311B0A03F01F0301337B61FEF7DAFB11
:101A90003861FFF741FE0346FB73FA7BFB799A42FC
:101AA00028D03B697A6902FB03F3BB60FB79022B08
:101AB0000CD1BB68124A934204D940F2B341114899
:101AC000FEF738FC02213869FEF7D0FD0E4CFB7999
:101AD0001846FFF767FE03462361BB79002B01D050
:101AE000FFF70CFEFB79002B05D100213869FEF7CA
:101AF000BDFD00E000BF1C37BD4690BD00400E405C
:101B0000002D31012445000000300E4080B582B028
:101B100000AF78600E4B1B6823F440727B685B78E3
:101B20001B020B4913430B607B685B78022B0AD1C5
:101B3000084B5B6A03F00053002B04D040F2ED41E8
:101B40000548FEF7F7FB00BF0837BD4680BD00BF64
:101B500000300E4000400E402445000080B400AF2D
:101B600001231846BD465DF8047B704780B582B0FE
:101B700000AF0C4BDB6E0B4A43F08073D366002141
:101B80000948FFF7A6FD78607B68002B03D004208E
:101B900000F040FD02E0002000F03CFD00BF0837EF
:101BA000BD4680BD00300E404C300E4080B58AB03E
:101BB00000AF01237B627B6A1B053B62404BDB6C01
:101BC0001B0A03F00F03FB613E4B1B881A463D4B7B
:101BD0001B8828335B08134403F12801FB695A1C56
:101BE00013469B001344B1FBF3F3013BBB61BB699C
:101BF0007B6107233B613A697B69934228BF1346A7
:101C0000BB61BB691B06BB61BB6923F0E063002BB2
:101C100004D040F2CE612C48FEF78CFB3B6A23F4E3
:101C2000E003002B04D040F2CF612748FEF782FB8F
:101C3000234BDB6C23F0EE62B9693B6A0B4320490E
:101C40001343CB64214BB3F90030002B33DB1F4B24
:101C5000B3F90030FB81FA89FB8928335B08134410
:101C600003F12802FB6901335900FB6901335B086A
:101C70000B44B2FBF3F3BB60BB687B6007233B60A4
:101C80003A687B68934228BF1346BB60BB681B0160
:101C9000BB60BB6823F07003002B04D040F2E76107
:101CA0000948FEF747FB064B1B6D23F07002044901
:101CB000BB6813430B6500BF2837BD4680BD00BF1E
:101CC00000300E409C00002024450000A0000020B1
:101CD00080B483B000AF78600B467B807B689AB29B
:101CE000054B1A80054A7B88138000BF0C37BD4620
:101CF0005DF8047B704700BF9C000020A00000201E
:101D000080B582B000AF0346FB71FB79002B02D097
:101D1000012B04D007E0094B094A9A6509E0074BFB
:101D2000084A9A6505E040F213710748FEF702FB86
:101D300000BF00BF0837BD4680BD00BF00300E4069
:101D400077402057372110B72445000080B584B074
:101D500000AF0346FB710B46BB7113467B71334BDF
:101D6000D3F88031FB60BB79032B1DD801A252F858
:101D700023F000BF851D00008D1D0000971D000091
:101D8000A11D0000FB68DBB2FB6014E0FB681B0ACE
:101D9000DBB2FB600FE0FB681B0CDBB2FB600AE010
:101DA000FB681B0EFB6006E040F257712048FEF70F
:101DB000C1FA002336E07B79002B16D1FB681B03A8
:101DC000FB60FB6823F47043002B06D040F2627185
:101DD0001748FEF7AFFA002324E0164BDB6E23F41E
:101DE00070421449FB681343CB667B79012B18D1F1
:101DF000FB681B03FB60FB6823F47043002B06D0D9
:101E000040F26E710A48FEF795FA00230AE0094B8A
:101E1000D3F8EC3023F470420649FB681343C1F851
:101E2000EC30012318461037BD4680BDB081E00F6D
:101E30002445000000300E4080B588B000AFF86047
:101E4000B96011461A460B46FB711346BB7100235D
:101E5000FB610023BB61BB791B02FA79002A01D028
:101E6000012200E0002213437B617B6940F20112F2
:101E700093422AD0B3F5817F07D2012B19D0012BD1
:101E800047D3B3F5807F50D073E040F201229342F4
:101E900027D040F20122934203D8B3F5007F50D0FF
:101EA00067E0B3F5407F58D040F20132934224D02E
:101EB0005FE0384BD3F87431FB61FB691B0ADBB27E
:101EC000BB61FB69DBB2FB6159E0324BD3F8743183
:101ED000FB61FB691B0EBB61FB691B0CDBB2FB6189
:101EE0004DE02C4BD3F87831FB61FB691B0ADBB268
:101EF000BB61FB69DBB2FB6141E0264BD3F8783173
:101F0000FB61FB691B0EBB61FB691B0CDBB2FB6158
:101F100035E0204BD3F86C31FB61FB691B0ADBB267
:101F2000BB61FB69DBB2FB6129E01A4BD3F86C3172
:101F3000FB61FB691B0EBB61FB691B0CDBB2FB6128
:101F40001DE0144BD3F87031FB61FB691B0ADBB257
:101F5000BB61FB69DBB2FB6111E00E4BD3F8703162
:101F6000FB61FB691B0EBB61FB691B0CDBB2FB61F8
:101F700005E040F2D3710848FEF7DCF900BFFB68CA
:101F8000FA691A60BB68BA691A6000BF2037BD469B
:101F900080BD00BFB081E00F2445000080B584B053
:101FA00000AF0346FB7100BF364B9B6F03F001038C
:101FB000002BF9D1334B1B6C03F00303FB60FB6870
:101FC000002B04D001220D212F48FFF76BFBFB688B
:101FD000DBB2FA799A4208D1FB79002B4ED100226C
:101FE0000D212948FFF75EFB48E0FB68032B02D078
:101FF000FB68002B20D1FB79022B02D0FB79012B4F
:102000001AD14FF40020FFF795FB00BF1D4B9B6FCB
:1020100003F00103002BF9D11A4B1B6C23F00303CF
:10202000184A43F00103136400BFFFF793FB034614
:1020300003F40023002BF8D000BF124B9B6F03F07A
:102040000103002BF9D10F4B1B6C23F00302FB792A
:102050000C4913430B6400BF0A4B9B6F03F0010351
:10206000002BF9D1FB79002B14BF01230023DBB235
:102070001A460D210448FFF715FB00E000BF10379A
:10208000BD4680BD00300E4054300E4080B584B057
:1020900000AF78606B4B02229A636A4B9B6B03F034
:1020A0000F03022B06D040F66D016748FEF742F998
:1020B0000023C3E0FFF752FD7B681B89C82B04D9BE
:1020C00040F677016048FEF735F97B689A887B68AF
:1020D0001B899A4204D940F678015B48FEF72AF939
:1020E0007B68B3F90C30C82B04DD40F67901564803
:1020F000FEF720F97B685B78012B09D17B689B8810
:10210000C82B12D940F67D014F48FEF713F90CE0B9
:102110007B685B78022B08D17B689B880A2B04D9EB
:1021200040F682014848FEF705F97B68DB8842F2F9
:102130001072934204D940F68A014348FEF7FAF838
:102140007B68DB884A2B02D80023FB6015E07B68A4
:10215000DB88B3F5FA7F03D24FF08053FB600CE0CD
:102160007B68DB8840F6C312934203D84FF00053DC
:10217000FB6002E04FF04053FB60324BDB6C23F01E
:10218000405323F001037A68B2F90C20002A01DBE6
:10219000012100E00021FA680A432A491343CB6475
:1021A000284BD3F8EC30274A43F44073C2F8EC30A4
:1021B000FFF7DCFC7B681B891A467B68B3F90C309F
:1021C00019461046FFF784FD7B689A881F4B1A80DA
:1021D0007B689B88184600F0A9F97B689B7B1846B2
:1021E000FFF78EFD7B685B8801220121184600F015
:1021F00031F8034683F00103DBB2002B06D040F632
:10220000C1011148FEF796F8002317E00D4BDB6B78
:102210000C4A43F48063D3637B685B781846FFF70E
:10222000BDFE7B689B7A202B01D1012300E00023B7
:102230001A4605210648FFF735FA012318461037DC
:10224000BD4680BD00300E40244500009E000020A9
:102250003C300E4090B595B000AF78600B46FB70F7
:102260001346BB700023FB6400237B6407F1240347
:1022700000221A605A609A6007F1180300221A605F
:102280005A609A6007F10C0300221A605A609A6043
:1022900007F1080300210A461A800A469A707B68F3
:1022A000B3F5E16F06D37B6840F6B832934201D8AC
:1022B000012300E0002387F8433097F8433003F010
:1022C000010387F8433097F8433083F00103DBB212
:1022D000002B06D040F606119148FEF72BF800239C
:1022E00019E17B68B3F5E16F8CBF0123002387F808
:1022F000423097F84230002B0AD04FF4E163FB6480
:1023000040F6B8337B647A6CFB6CD31ABB6409E08B
:102310004FF49663FB644FF4E1637B647A6CFB6C6F
:10232000D31ABB6497F84230002B0BD07D4BD3F807
:1023300068313B623B6A1B0E7B613B6A1B0CDBB264
:102340003B620AE0774BD3F868313B623B6A1B0A79
:10235000DBB27B613B6ADBB23B62734BDB6C1B0F16
:10236000DBB203F00303DBB23B723B7A97F8422007
:1023700007F10C0107F11800FFF75EFD6A4BD3F877
:10238000EC301B0ADBB203F00303DBB27B727C7A16
:1023900097F8422007F10C03191D07F11803181DC7
:1023A0002346FFF749FD7A68FB6CD31A79693A6ACC
:1023B0008A1A02FB03F2BB6CB2FBF3F3FB62FA6A0C
:1023C0003B6A1344FB627A68FB6CD31AF968BA69FA
:1023D0008A1A02FB03F2BB6CB2FBF3F37B627A6AEC
:1023E000BB6913447B627A68FB6CD31A3969FA695A
:1023F0008A1A02FB03F2BB6CB2FBF3F3BB62BA6A4C
:10240000FB691344BB62FA6A7B699A4213D8FA6A81
:102410003B6A9A420FD3BA6A3B699A420BD8BA6AAE
:10242000FB699A4207D37A6AFB689A4203D87A6AB0
:10243000BB699A4206D240F654113948FDF77AFF3B
:10244000002368E0BB78002B12D0374BDB6D23F400
:10245000FE4323F00203FA6A1202134397F8422064
:10246000002A01D0022200E000222F491343CB654D
:10247000FB78002B4ED0397A97F84230002218466C
:10248000FFF764FC034683F00103DBB2002B06D0A8
:1024900040F663112248FDF74DFF00233BE0797AB7
:1024A00097F8423001221846FFF750FC034683F0AC
:1024B0000103DBB2002B06D040F66B111848FDF784
:1024C00039FF002327E07B6AFB63BB6ABB63BA6BFF
:1024D000FB6B934238BF13467B627B6A7B63E723C7
:1024E0003B633A6B7B6B934228BF13467B620E4B78
:1024F0005B6E23F4FF7323F001037A6A52001343E7
:1025000097F84220002A01D0012200E0002206496B
:1025100013434B66012318465437BD4690BD00BF98
:1025200024450000B081E00F00300E4080B584B03B
:1025300000AF78600023FB60344B1B6F03F0070390
:10254000BB60324BDB6C03F00103002B14D0BB6883
:10255000012B11D97B68132B02D80423FB603DE0CB
:102560007B68132B05D97B68272B02D80823FB60D7
:1025700034E01023FB6031E0244BDB6C03F00103FB
:10258000002B14D1BB68012B11D87B68092B02D812
:102590000423FB6022E07B68092B05D97B68132BA1
:1025A00002D80823FB6019E01023FB6016E0174BEC
:1025B000DB6C03F00103002B0BD0BB68012B08D8A8
:1025C0007B68272B02D80823FB6007E01023FB6001
:1025D00004E040F6A9110E48FDF7ACFEFB68013B94
:1025E000FB60FB681A02FB681B031343FB60074B8D
:1025F000DB6C23F47F420549FB681343CB64FFF790
:10260000D5FA00BF1037BD4680BD00BF00300E4078
:102610002445000080B584B000AF0346FB71002163
:102620001148FFF756F8F860FB68002B02D1FB79E0
:10263000012B07D9FB68002B04D140F6C8110B48C9
:10264000FDF778FE0A4B1B6F23F00702FB79084960
:1026500013430B67074B1B881846FFF767FF00BF44
:102660001037BD4680BD00BF4C300E4024450000F1
:1026700000300E409E00002080B485B000AF78602E
:1026800039607B6803F1C063FB60FB683A681A60DD
:1026900000BF1437BD465DF8047B704780B485B039
:1026A00000AF786039607B6803F18063FB60FB6892
:1026B0003A681A6000BF1437BD465DF8047B704766
:1026C00080B584B000AFF860B9607A60B968F86826
:1026D000FFF7E4FF7968F868FFF7CEFF00BF103717
:1026E000BD4680BD80B582B000AF03463960FB7146
:1026F000FB79002B38D0FB79012B32D0FB79022BF0
:102700002CD0FB79032B26D0FB79042B21D0FB792D
:10271000052B1BD0FB79062B16D0FB79072B11D08C
:10272000FB79082B0CD0FB79092B06D0FB790A2BFF
:1027300001D107231AE0002318E04FF4404315E0CD
:102740000F2313E0002311E000230FE04FF6FF7387
:102750000CE000230AE04FF47F4307E040F6FF73EC
:1027600004E04FF6C07301E040F2FF333A681341D2
:1027700003F00103002B04D140F2DD310C48FDF7DA
:10278000D9FDFA7913465B0013441B010C3303F1A6
:10279000804303F5204301213A6801FA02F2114611
:1027A0001846FFF77BFF00BF0837BD4680BD00BF5E
:1027B0003845000080B582B000AF03463960FB7138
:1027C000FB79002B38D0FB79012B32D0FB79022B1F
:1027D0002CD0FB79032B26D0FB79042B21D0FB795D
:1027E000052B1BD0FB79062B16D0FB79072B11D0BC
:1027F000FB79082B0CD0FB79092B06D0FB790A2B2F
:1028000001D107231AE0002318E04FF4404315E0FC
:102810000F2313E0002311E000230FE04FF6FF73B6
:102820000CE000230AE04FF47F4307E040F6FF731B
:1028300004E04FF6C07301E040F2FF333A68134101
:1028400003F00103002B04D140F20C410C48FDF7CA
:1028500071FDFA7913465B0013441B010C3303F13D
:10286000804303F5204301213A6801FA02F2114640
:102870001846FFF701FF00BF0837BD4680BD00BF07
:102880003845000080B582B000AF03463960FB7167
:10289000FB79002B1DD0FB79012B1AD0FB79022B81
:1028A00017D0FB79032B14D0FB79042B16D0FB79BE
:1028B000052B0ED0FB79062B10D0FB79072B0DD002
:1028C000FB79082B05D0FB79092B02D0FB790A2B69
:1028D00004D13B6823F00113002B03D083210B4864
:1028E000FDF728FDFA7913465B0013441B0103F141
:1028F000804303F520433A684FF001111846FFF773
:10290000DFFE00BF0837BD4680BD00BF9C4500000C
:1029100080B584B000AFB9607B600346FB7313469B
:10292000BB73FB7B002B38D0FB7B012B32D0FB7BB6
:10293000022B2CD0FB7B032B26D0FB7B042B21D03E
:10294000FB7B052B1BD0FB7B062B16D0FB7B072BC1
:1029500011D0FB7B082B0CD0FB7B092B06D0FB7B1B
:102960000A2B01D107231AE0002318E04FF440435B
:1029700015E00F2313E0002311E000230FE04FF6D2
:10298000FF730CE000230AE04FF47F4307E040F6BA
:10299000FF7304E04FF6C07301E040F2FF33BA6802
:1029A000134103F00103002B04D140F21311394805
:1029B000FDF7C0FCBB7B002B0DD07B68002B05D046
:1029C000FB7BB9681846FFF7F5FE04E0FB7BB968AE
:1029D0001846FFF787FEBB68072B20D82E49FA7BE5
:1029E00013465B0013441B010B4404331A68BB6895
:1029F0009B000F2101FA03F3DB431340B97BBA6854
:102A0000920001FA02F211462348FA7B1943134659
:102A10005B0013441B0103440433196025E01E4985
:102A2000FA7B13465B0013441B010B4408331A68FE
:102A3000BB6803F18043083B9B000F2101FA03F3BD
:102A4000DB4302EA0301BA7BBB6803F18043083B26
:102A50009B0002FA03F31048FA7B194313465B000C
:102A600013441B01034408331960BB7B002B0DD1B9
:102A70007B68002B05D0FB7BB9681846FFF79AFEF0
:102A800004E0FB7BB9681846FFF72CFE00BF103747
:102A9000BD4680BD9C45000000A0004080B586B0CA
:102AA00000AFF860B9607A60FB68114A934207D1C1
:102AB000BB68012B04D87B681B0C1B04002B03D0C4
:102AC000BD210C48FDF736FCBB68002B02D0012B62
:102AD00004D00AE0FB6810337B6103E0FB68143329
:102AE0007B6100BF7B697A681A601837BD4680BD7C
:102AF00000600440B045000080B582B000AF78604F
:102B00000B46FB707B680A4A934203D0EA210948CE
:102B1000FDF710FCFB78002B03D07B6801225A6084
:102B200002E07B6802225A6000BF0837BD4680BDC4
:102B300000600440B045000080B584B000AF78600C
:102B400039600023FB607B68374A934204D04FF41E
:102B5000A5713648FDF7EEFB3B681B7883F0010357
:102B6000DBB2002B08D07B689B6803F00103002BCD
:102B700002D07B6802225A603B685B78002B03D04E
:102B8000FB6843F48053FB603B689B78002B03D1C8
:102B90003B68DB68002B07D0FB6843F40073FB60E5
:102BA0003B68DA687B681A613B68DB78002B03D0EE
:102BB000FB6843F48073FB603B681B79002B03D0F8
:102BC000FB6843F04003FB603B685B79002B03D05C
:102BD000FB6843F08003FB603B689B799B001A46CF
:102BE000FB681343FB603B68DB791B011A46FB68FB
:102BF0001343FB603B681B7A1A46FB681343FB6078
:102C00007B68FA681A603B681B78002B08D07B68E9
:102C10009B6803F00103002B02D17B6801225A60FC
:102C200000BF1037BD4680BD00600440B0450000C5
:102C300080B483B000AF78600B46FB70FB7863F024
:102C40007F03DBB21A467B689A6500BF0C37BD462E
:102C50005DF8047B7047000080B586B000AFF86077
:102C6000B9607A60FB707B68002B04D14FF49171DE
:102C70004448FDF75FFBBB68002B03D14248FDF7DA
:102C800075FEB860FB78202B16D0202B02DC002BC1
:102C900005D03BE0402B1CD0602B2AD036E0BB682F
:102CA0001B097A689A4204D94FF4AA713548FDF796
:102CB00041FB10237B612FE0BB68DB087A689A42F6
:102CC00004D940F259112F48FDF734FB08237B61EA
:102CD00022E0BB682D4AA2FB03239B087A689A4234
:102CE00004D94FF4AF712748FDF724FB06237B611D
:102CF00012E0BB689B087A689A4204D940F26311DB
:102D00002048FDF717FB04237B6105E040F26911C1
:102D10001C48FDF70FFB32E0BB685A017B697968FC
:102D200001FB03F35B0813443B617B697A6802FB98
:102D300003F33A69B2FBF3F33B613B69203B3B6130
:102D40003B69DB003B613B69114A934204D940F285
:102D50007F110C48FDF7EEFA3A690D4B13403B61C9
:102D6000FB681B6823F06002FB681A60FB681A6846
:102D7000FB781A43FB681A60FB683A695A61183796
:102D8000BD4680BDC845000040410500ABAAAAAAC7
:102D9000F8FF7F0080B584B000AF78600B46FB7011
:102DA0007B68134A934210D07B68124A93420CD03E
:102DB0007B68114A934208D07B68104A934204D042
:102DC00040F29E210E48FDF7B5FAFB78DB43FB602D
:102DD000FB6803F00503FB60FB685A007B68DA6060
:102DE000FA787B68DA6000BF1037BD4680BD00BF4F
:102DF000000001400004014000080140000C0140B7
:102E0000C845000080B582B000AF786039607B684B
:102E1000354A934210D07B68344A93420CD07B6889
:102E2000334A934208D07B68324A934204D040F23E
:102E3000CF213148FDF77EFA786800F05FF83B68F3
:102E40009B7C002B05D07B681B6843F080427B682D
:102E50001A603B68DB7C002B05D03B681B7D194664
:102E60007868FFF7E5FE3B685B7B1A463B681B8A88
:102E700013433A68D2891A437B685A603B685968A1
:102E80003B689A683B681B7B7868FFF7E5FE3B6808
:102E90005B7D002B05D07B681B6843F480327B6828
:102EA0001A603B689B7D1B0703F0E0423B68DB7DBB
:102EB0001B0503F4E0031A437B681A667B685B6FAB
:102EC00023F030027B685A677B685B6F3A68127E3A
:102ED0001A437B685A673B681B781A467B68DA603E
:102EE00000BF0837BD4680BD00000140000401401E
:102EF00000080140000C0140C845000080B582B0C8
:102F000000AF78607B682E4A934210D07B682D4AD0
:102F100093420CD07B682C4A934208D07B682B4AA2
:102F2000934204D040F2FE312948FDF703FA7B6852
:102F300040F6AA62DA607B6800221A607B6841F280
:102F400005025A607B6800229A607B6800225A6101
:102F50007B680022DA647B681E4A9A647B680022E0
:102F60001A667B6800225A677B6800229A677B6832
:102F70000022DA677B68124A93420BD07B68114AC1
:102F8000934207D07B68104A934203D07B680F4A74
:102F9000934202D17B6800221A657B6800229A6501
:102FA0007B68084A934203D07B68084A934202D167
:102FB0007B680022DA6500BF0837BD4680BD00BFD0
:102FC000000001400004014000080140000C0140E5
:102FD000C8450000F9FF010080B483B000AF7860FD
:102FE00000BF7B681B6903F08003002BF9D07B686E
:102FF000DB69DBB218460C37BD465DF8047B7047D1
:1030000080B483B000AF78600B46FB7000BF7B6874
:103010001B6903F04003002BF9D0FA787B685A63F0
:1030200000BF0C37BD465DF8047B704780B483B0A9
:1030300000AF7860002318460C37BD465DF8047B6E
:10304000704780B483B000AF7860FEE780B483B08F
:1030500000AF786039603B684FF400525A6000233B
:1030600018460C37BD465DF8047B704780B483B0CA
:1030700000AF7860012318460C37BD465DF8047B2D
:10308000704780B485B000AFF860B9607A60002303
:1030900018461437BD465DF8047B704780B586B08E
:1030A00000AFF860B9607A6000237B610FE000F048
:1030B00097F938613B69B3F1FF3F0ED0BB685A1CEA
:1030C000BA603A69D2B21A707B6901337B617B685E
:1030D0005A1E7A60002BEAD100E000BF7B69002B0A
:1030E00002DC4FF0FF3300E07B6918461837BD461D
:1030F00080BD000080B485B000AF78600B4B1B68CA
:10310000002B02D1094B0A4A1A60084B1B68FB606E
:10311000064B1A687B681344044A1360FB68184620
:103120001437BD465DF8047B704700BFB400002033
:10313000E000002080B586B000AFF860B9607A602A
:1031400000237B6109E0BB685A1CBA601B781846F3
:1031500000F086F97B6901337B617A697B689A426A
:10316000F1DB7B6818461837BD4680BD80B483B05C
:1031700000AF0346FB7197F90730002B0BDBFB799F
:1031800003F01F02074997F907305B09012000FA95
:1031900002F241F8232000BF0C37BD465DF8047BE6
:1031A000704700BF00E100E080B483B000AF034689
:1031B000FB7197F90730002B0CDBFB7903F01F0242
:1031C000074997F907305B09012000FA02F26033E2
:1031D00041F8232000BF0C37BD465DF8047B7047E3
:1031E00000E100E080B483B000AF786039607B68B4
:1031F0003A689A6400BF0C37BD465DF8047B70479F
:1032000080B483B000AF786039607B68DA6C3B686B
:10321000DB431A407B68DA6400BF0C37BD465DF8BB
:10322000047B704780B483B000AF786039607B68FE
:10323000DA6C3B681A437B68DA6400BF0C37BD4622
:103240005DF8047B7047000080B500AF04210248A0
:10325000FFF7D6FF00BF80BD0000014080B500AF82
:1032600004210248FFF7DEFF00BF80BD00000140DF
:1032700098B500AF144B1B6903F08003002B20D0DE
:10328000124B1B68072B1ADC114B1C680E48FFF70A
:10329000A3FE03461A460F4B1A550D4B1B6801330C
:1032A0000B4A1360094B1B680133084A1360084B33
:1032B0001B68082B05D1064B00221A6001E0FFF7BE
:1032C000C3FF00BF98BD00BF00000140C000002048
:1032D000BC000020C400002080B483B000AF786040
:1032E0007B68002B03D0064B01221A7002E0044BCE
:1032F00000221A7000BF0C37BD465DF8047B704792
:10330000CC000020B0B588B000AF01212D48FDF7FA
:10331000C1FA01212C48FDF7BDFA01230422002146
:103320000020FFF7F5FA0123022201210020FFF718
:10333000EFFA264BFB61264B3C461D460FCD0FC4D2
:1033400095E8070084E807000123042205210020F6
:10335000FFF7DEFA01211F48FDF79CFA00233B70BE
:103360003B461946F869FFF74DFDFB6903225A6792
:10337000FB699B6F23F4F85323F01F03FA699367EB
:1033800004211248FFF72EFF0C20FFF70DFF042148
:103390000E48FFF747FF0C20FFF7E8FE0521F8690C
:1033A000FFF7F8FC0C4B1B689868002302220021F1
:1033B00000F0A2FB094B01221A7000BF2037BD4666
:1033C000B0BD00BF4041050000350A0000000140CB
:1033D000DC4500000042040014000020CD00002065
:1033E00080B582B000AF4FF0FF337B60184B1B7885
:1033F00083F00103DBB2002B01D0FFF783FFFEF760
:103400002DF93860134B1B68002B18DD124B1B681D
:10341000124AD35CDBB27B600F4B1B6801330E4A50
:1034200013600D4B1B68082B02D10B4B00221A6056
:10343000084B1B68013B074A1360FFF70FFF386812
:10344000FEF71CF97B6818460837BD4680BD00BFF3
:10345000CD000020C0000020B8000020C4000020E3
:1034600080B582B000AF0346FB710F4B1B7883F031
:103470000103DBB2002B01D0FFF744FF0B4B1B789D
:10348000002B06D0FB790A2B03D10D210848FFF74A
:10349000B7FDFB7919460648FFF7B2FDFB791846E0
:1034A0000837BD4680BD00BFCD000020CC00002005
:1034B0000000014080B582B002AF00F05BF800F080
:1034C00079F8012300930023042200214FF4606067
:1034D00000F02EF80349044800F008F800BFBD468C
:1034E00080BD00BFCDCCCC3D6666464080B586B081
:1034F00000AF786039607B683B613B687B6100238B
:103500003B7200237B7200233B7300237B730023F9
:10351000BB720023FB7207F108031946034800F051
:1035200067F800BF1837BD4680BD00BF006004408B
:1035300080B588B000AFF8607A601A460B46FB721F
:103540001346BB72BB7A3B7597F828307B75FB68D6
:10355000BB61FB7A3B777B68DBB27B770123BB7770
:1035600007F11403184600F0E7F800BF2037BD4606
:1035700080BD000080B500AF01210B48FDF78AF93E
:10358000002200210120FDF717FE0022002100206B
:10359000FDF712FE0A210548FDF7D8FB012104487A
:1035A000FDF778F900BF80BD4041050002001E0014
:1035B00000250A0080B500AF01210C48FDF76AF92B
:1035C00000210520FFF75EF90023042204210520D5
:1035D000FFF79EF900210520FFF754F9002304228C
:1035E00005210520FFF794F900BF80BD00350A00D2
:1035F00080B588B000AF786039607B68424A9342FA
:1036000003D101214148FDF745F97B681B6A03F0AE
:103610000103002B10D17B6801225A627B681B6A70
:1036200003F00103002B03D132213948FCF782FE5D
:103630007B6801229A620CE07B6801229A627B68B7
:103640001B6A03F00103002B03D036213048FCF73E
:1036500071FE3B68D3ED027A9FED2E7A67EE877A92
:10366000FCEEE77A17EE903AFB613B68D3ED037A04
:103670009FED287A67EE877AFCEEE77A17EE903AAC
:10368000BB610023FB720123BB723B681B787B721A
:103690003B685B783B7200233B7300237B73002302
:1036A0003B740323BB730323FB7307F10803194621
:1036B0007868FFF741FAFA6900217868FFF7EEF9B8
:1036C000BA6901217868FFF7E9F97B680E4A9342ED
:1036D00015D10D4BFF229A610B4BFF22DA613B683B
:1036E000DA783B689B781343DAB2074B5A643B683D
:1036F0005B795B003A6812791A43034B1A6400BF86
:103700002037BD4680BD00BF006004408006160023
:10371000F845000000007A4480B582B000AF7860C0
:103720000B46FB70FB7819467868FFF7E5F900BF98
:103730000837BD4680BD000090B585B000AF786009
:1037400001214D48FDF7A6F84C4B5B68FB604B4BE5
:103750005B6803F00103002B10D1484B01225A6033
:10376000464B5B6803F00103002B03D1252144483D
:10377000FCF7E0FD414AFB6853600FE03F4B00223D
:103780005A603E4B5B6803F00103002B03D02921F4
:103790003B48FCF7CFFD394AFB6853607B685B7898
:1037A000002B0FD07B685B687A68127A1343334929
:1037B0007A681278104643F0804200F1140341F811
:1037C00023200FE07B685B681B027A68127A14463C
:1037D0002A497A681278104643EA040200F1140379
:1037E00041F823207B681B78032B0ED8234B1B69E1
:1037F0007A68527A11467A681278D20001FA02F297
:1038000011461E4A0B43136126E07B681B78072B89
:103810000FD81A4B5B697A68527A11467A68127827
:10382000043AD20001FA02F21146144A0B435361E2
:1038300012E07B681B780B2B0ED8104B9B697A68C3
:10384000527A11467A681278083AD20001FA02F2E6
:1038500011460A4A0B439361084B9B687A681278B9
:10386000114601228A401146044A0B43936000BF6F
:103870001437BD4690BD00BF00450A0000600E40F1
:103880001846000080B400AF044BDB6C1B0EDBB2AB
:103890001846BD465DF8047B704700BFB081E00F5D
:1038A00080B582B000AF164B01225A64FFF7EAFFE1
:1038B0000346FB71FB79002B0CD1124B4AF6E85200
:1038C0001A60114B1B68104A43F0040313600D4B40
:1038D00000221A60FB79012B05D80C4B1B680B4AA0
:1038E00043F4005313600A4B1B6A23F44413084A41
:1038F00043F48813136200BF0837BD4680BD00BF84
:1039000000000E4090310E4098310E4064310E4060
:1039100000400E40B0B58AB000AF214B07F118044B
:103920000FCB84E80F001F4B3C1D1D460FCD0FC46D
:103930002B682380FFF7B4FF00233B7000237B70CC
:1039400007F118031846FEF7A1FB02237B703B46E4
:103950001846FEF7DBF83B1D1846FDF7ABFB0122CE
:1039600001210320FDF728FC05211120FDF7EEF9C8
:10397000002200210220FDF71FFCFFF79BFDFFF74F
:10398000C1FC0120FFF7A8FC074800F0ADF80121B9
:103990000648FFF7C1FE0120FEF70AF8FBE700BF6B
:1039A0005C4600006C4600003446000000600440A5
:1039B00008B5074B044613B10021AFF30080054B57
:1039C0001868836A03B198472046FFF73AFB00BFA7
:1039D000000000008046000070B50D4E0D4CA41B89
:1039E000A4100025A54209D10B4E0C4C00F03EFD61
:1039F000A41BA4100025A54205D170BD56F82530A2
:103A000098470135EEE756F8253098470135F2E73B
:103A10007800002078000020780000207C00002042
:103A200002440346934200D1704703F8011BF9E7B3
:103A300070B50E46054618B183690BB900F0BAFAA5
:103A4000AB69AC6813B9284600F0B4FA234B9C422A
:103A500017D16C68A3891B071DD52369DBB1013E13
:103A6000A36816F8011F013BA360E9B9002B2EDA09
:103A700022460A21284600F0EDF8013011D00A2034
:103A800011E0174B9C4201D1AC68E3E7154B9C4217
:103A900008BFEC68DEE72146284600F02DF9002833
:103AA000DDD04FF0FF3070BD002B04DAA2699A42DE
:103AB00006DC0A2904D023685A1C22601970CFE75B
:103AC0002246284600F0C6F80130C9D1E9E723684C
:103AD0000A205A1C22601870E5E700BFA4460000C7
:103AE000C446000084460000024B01461868FFF7F8
:103AF0009FBF00BF140000202DE9F7431D46514B26
:103B00001E6804460F46904626B1B36913B9304685
:103B100000F050FA4C4B9C4252D17468B8F1020F3D
:103B200006D0B8F1010F00F28980002DC0F2868026
:103B30002146304600F0D4F9616B41B104F14403F1
:103B4000994202D0304600F02BFB00236363002330
:103B5000A3616360A3891B0603D52169304600F089
:103B60001FFBA38923F44A6323F00303B8F1020F78
:103B7000A3815DD001AB6A462146304600F0A4FA2D
:103B8000A3891843A0812DBB009D284600F000FBAF
:103B9000074600284ED1DDF80090A9453CD14FF0F2
:103BA000FF30A38943F00203A3810023A36004F143
:103BB0004703236023610123636103B0BDE8F08301
:103BC000224B9C4201D1B468A8E7214B9C4208BF1C
:103BD000F468A3E7002FD8D0B36913B9304600F0DA
:103BE000E9F9B8F1010F08BFA389276004BF43F0CA
:103BF0000103A381A38913F00800C4E904751BD055
:103C000013F0010018BF6D424FF000031DBFA36009
:103C1000A5611846A560D0E7484600F0B9FA074606
:103C20000028BCD0A38943F08003A3814D46D3E78D
:103C30000020B6E7A946F5E7A060BEE74FF0FF30E9
:103C4000BBE700BF14000020A4460000C4460000EB
:103C500084460000F8B50E461446054618B183693F
:103C60000BB900F0A7F9214B9C422AD16C68A369DB
:103C7000A360A3891A072ED5236963B3236920683B
:103C8000C01A6369F6B28342374604DC21462846EF
:103C900000F026F928BBA368013BA36023685A1CE7
:103CA00022601E7063690130834204D0A389DB0760
:103CB00019D50A2E17D12146284600F011F990B1E6
:103CC0000FE00B4B9C4201D1AC68D0E7094B9C4202
:103CD00008BFEC68CBE72146284600F00DF8002825
:103CE000CCD04FF0FF373846F8BD00BFA4460000E7
:103CF000C446000084460000324B70B51D6806467D
:103D00000C4625B1AB6913B9284600F053F92E4B88
:103D10009C420FD16C68B4F90C309AB215072CD4C0
:103D2000D00611D40922326043F04003A3814FF042
:103D3000FF303EE0254B9C4201D1AC68EBE7244BC1
:103D40009C4208BFEC68E6E7510712D5616B41B1B0
:103D500004F14403994202D0304600F021FA0023D6
:103D60006363A38923F02403A38100236360236991
:103D70002360A38943F00803A38123694BB9A38976
:103D800003F42073B3F5007F03D02146304600F0E2
:103D9000BFF9A28912F001030CD00023A36063696C
:103DA0005B42A361236953B9B4F90C3013F080006E
:103DB000BAD170BD920758BF6369A360F2E70020D3
:103DC000F7E700BF14000020A4460000C44600002E
:103DD000844600008A892DE9F041054610070C460B
:103DE00058D44B68002B05DC0B6C002B02DC002048
:103DF000BDE8F081E66A002EF9D0002312F480526B
:103E00002F68216A2B6032D0606DA3895A0705D5CF
:103E10006368C01A636B0BB1236CC01A002302469F
:103E2000E66A216A2846B047431CA38906D129685F
:103E30001D2948D8294ACA40D60744D500226260C5
:103E4000D9042269226004D5421C01D12B6803B930
:103E50006065616B2F600029C9D004F14403994269
:103E600002D0284600F09CF900206063C0E70123DF
:103E70002846B047411CC8D12B68002BC5D01D2B4C
:103E800001D0162B01D12F60B1E7A38943F0400385
:103E9000A381ADE70F69002FA9D093070E6808BF73
:103EA0004B690F6018BF0023A6EB07088B60B8F1C1
:103EB000000F9CDD43463A46216AA66A2846B04771
:103EC000002806DCA38943F04003A3814FF0FF30B4
:103ED0008EE70744A8EB0008E9E700BF0100402097
:103EE00038B50B6905460C46DBB118B183690BB9CF
:103EF00000F060F80C4B9C4209D16C68B4F90C30AE
:103F00007BB121462846BDE83840FFF763BF074B29
:103F10009C4201D1AC68F1E7054B9C4208BFEC68BC
:103F2000ECE7002038BD00BFA4460000C4460000F6
:103F300084460000002310B50446C0E900338360C6
:103F400081814366C281C0E9043383611946082236
:103F50005C30FFF765FD054B6362054BA362054BC3
:103F6000E362054B2462236310BD00BF11430000D0
:103F7000334300006B4300008F430000014900F011
:103F800085B800BFE13E000070B54A1E6825554364
:103F90000E4605F1740100F051F9044640B10021CC
:103FA000C0E900160C30A06005F16802FFF738FD8B
:103FB000204670BD836910B5044633BBC0E9123397
:103FC0000365124B124A1B688262984204BF0123A8
:103FD000836100F01FF86060204600F01BF8A060CD
:103FE000204600F017F80022E06004216068FFF727
:103FF000A1FF01220921A068FFF79CFF02221221E4
:10400000E068FFF797FF0123A36110BD8046000021
:104010007D3F0000F8B51B4B1E68B369074613B916
:104020003046FFF7C7FF4836D6E90134013B03D5D8
:10403000336833B13668F7E7B4F90C506DB16834C2
:10404000F4E704213846FFF79FFF30600028F1D1E4
:104050000C233B6004462046F8BD0B4B6566C4E963
:104060000055A560C4E90335C4E905550822294671
:1040700004F15C00FFF7D4FCC4E90D55C4E9125506
:10408000E9E700BF804600000100FFFF2DE9F8438B
:104090008046894600F14804002614B93046BDE840
:1040A000F883D4E90175013F01D52468F5E7AB89B0
:1040B000012B07D9B5F90E30013303D0294640460C
:1040C000C84706436835EEE770B50E46B1F90E10E5
:1040D000002996B014461D4607DA00232B60B389E9
:1040E0001A0610D44FF480630EE06A4600F076F9A9
:1040F0000028F2DB019A02F47042A2F500535A4202
:104100005A412A60EEE740230020236016B070BDBC
:104110008B8973B59D0706460C4607D504F1470306
:10412000236023610123636102B070BD01AB6A4665
:10413000FFF7CAFF00990546304600F07FF848B9FE
:10414000B4F90C309A05EFD423F0030343F00203D3
:10415000A381E3E70D4BB362A389206043F08003A2
:10416000A381009B6361019B20615BB1B4F90E10D8
:10417000304600F045F928B1A38923F0030343F04A
:104180000103A381A3891D43A581CDE77D3F0000E5
:10419000024B0146186800F051B800BF140000201F
:1041A00038B50546002945D051F8043C0C1F002BBA
:1041B000B8BFE41800F046F91F4A1368104633B937
:1041C000636014602846BDE8384000F03CB9A34263
:1041D0000CD921686218934204BF1A685B68636057
:1041E00004BF521822600460ECE713465A680AB113
:1041F000A242FAD919685818A0420BD1206801448C
:10420000581882421960DDD1106852685A60014422
:104210001960D7E702D90C232B60D3E72068211857
:104220008A4204BF11685268626004BF09182160A5
:104230005C60C7E738BD00BFD000002070B5CD1C62
:1042400025F0030508350C2D38BF0C25002D06463A
:1042500001DBA94203D90C233360002070BD00F0BC
:10426000F1F8214A1468214691B9204C23681BB902
:10427000304600F03DF820602946304600F038F81E
:10428000431C24D10C233360304600F0DCF8E4E713
:104290000B685B1B18D40B2B0FD90B60CD50CC18BF
:1042A000304600F0D0F804F10B00231D20F0070089
:1042B000C31AD3D05A42E250D0E78C424B6816BFA3
:1042C000636013600C46EBE70C464968CCE7C41CFE
:1042D00024F00304A04205D0211A304600F008F86B
:1042E0000130CFD02560DBE7D0000020D4000020D3
:1042F00038B5064C0023054608462360FEF7FAFE53
:10430000431C02D1236803B12B6038BDD8000020C4
:1043100010B50C46B1F90E1000F096F80028ABBFAE
:10432000636DA3891B1823F48053ACBF6365A3811D
:1043300010BD2DE9F0411F468B89DB0505460C4673
:10434000164605D502230022B1F90E1000F068F8D8
:10435000A389B4F90E1023F48053A38132463B465F
:104360002846BDE8F04100F017B810B50C46B1F989
:104370000E1000F055F8431CA38915BF606523F4A7
:10438000805343F48053A38118BFA38110BDB1F9BA
:104390000E1000F013B8000038B5074C054608466B
:1043A0001146002222601A46FEF7C4FE431C02D1C9
:1043B000236803B12B6038BDD800002038B5064C07
:1043C0000023054608462360FEF730FE431C02D159
:1043D000236803B12B6038BDD800002038B5074CE6
:1043E00000230546084611462360FEF72FFE431CB6
:1043F00002D1236803B12B6038BD00BFD800002074
:1044000038B5064C0023054608462360FEF72EFE0D
:10441000431C02D1236803B12B6038BDD8000020B3
:1044200038B5074C054608461146002222601A4658
:10443000FEF727FE431C02D1236803B12B6038BD71
:10444000D80000207047704738B5074C054608462D
:104450001146002222601A46FEF720FE431C02D1BC
:10446000236803B12B6038BDD8000020F8B500BF29
:10447000F8BC08BC9E467047F8B500BFF8BC08BC45
:104480009E467047633A5C73696C69636F6E6C61DA
:1044900062735C73696D706C696369747973747548
:1044A00064696F5C76345C646576656C6F706572A8
:1044B0005C73646B735C6765636B6F5F73646B5F86
:1044C00073756974655C76322E355C706C617466E8
:1044D0006F726D5C656D6C69625C696E635C656D65
:1044E0005F636D752E6800002E2E2F656D6C6962FE
:1044F0002F656D5F636D752E6300000040787D0150
:1045000000000000005A620200010000C0CF6A00F3
:1045100002000000809FD50002010000002D310143
:10452000020200002E2E2F656D6C69622F656D5F93
:10453000656D752E63000000633A5C73696C696396
:104540006F6E6C6162735C73696D706C69636974C2
:104550007973747564696F5C76345C646576656CD8
:104560006F7065725C73646B735C6765636B6F5FC0
:1045700073646B5F73756974655C76322E355C703D
:104580006C6174666F726D5C656D6C69625C696E9E
:10459000635C656D5F6770696F2E68002E2E2F65F6
:1045A0006D6C69622F656D5F6770696F2E630000C7
:1045B0002E2E2F656D6C69622F656D5F6C65746959
:1045C0006D65722E630000002E2E2F656D6C696282
:1045D0002F656D5F75736172742E630005000000B6
:1045E0000000000000C201000005000000100000F3
:1045F00000000000000000002E2E2F7372632F5366
:104600006F757263655F66696C65732F6C6574693D
:104610006D65722E630000002E2E2F7372632F5370
:104620006F757263655F66696C65732F7072732E48
:104630006300000048656C6C6F20576F726C6421DA
:10464000205468652070726F6772616D20686173B5
:1046500020737461727465642E20000000020807E4
:1046600005000A00C8000000FFFF01000100000073
:10467000A00068010A200706020A040700000000E3
:1046800018000020000000000000000000000000F2
:10469000000000000000000000000000000000001A
:1046A000000000000000000000000000000000000A
:1046B00000000000000000000000000000000000FA
:1046C00000000000000000000000000000000000EA
:1046D00000000000000000000000000000000000DA
:0846E0000000000000000000D2
:0846E80064BAFF7F010000002D
:1046F000005A620200800000C0EA2101C0EA2101E4
:10470000C0EA21011800002000000000A4460000BB
:10471000C4460000844600000000000000000000C5
:104720000000000000000000000000000000000089
:104730000000000000000000000000000000000079
:104740000000000000000000000000000000000069
:104750000000000000000000000000000000000059
:104760000000000000000000310100000D01000009
:04000003000001C137
:00000001FF
