S01C000057415F456E657267795F4D6F64655F5350323032302E733337CD
S113000000000420C1010000ED010000ED0100002A
S1130010ED010000ED010000ED010000ED01000024
S1130020ED010000ED010000ED010000ED01000014
S1130030ED010000ED010000ED010000ED01000004
S1130040ED010000ED010000ED010000ED010000F4
S1130050ED010000ED010000ED010000ED010000E4
S1130060ED010000ED010000ED010000ED010000D4
S1130070ED010000ED010000ED010000ED010000C4
S1130080ED010000ED010000ED010000ED010000B4
S1130090ED010000ED010000ED010000ED010000A4
S11300A0ED010000ED010000ED01000091320000BF
S11300B0ED010000ED010000ED010000ED01000084
S11300C0ED010000ED010000ED010000ED01000074
S11300D0ED010000ED010000ED010000ED01000064
S11300E0ED010000ED010000ED010000ED01000054
S11300F0ED010000ED010000ED010000ED01000044
S1130100ED010000ED010000ED01000010B5054C0B
S1130110237833B9044B13B10448AFF300800123AF
S1130120237010BD7C000020000000005039000046
S113013008B5034B1BB103490348AFF3008008BD66
S1130140000000008000002050390000154B002BF7
S113015008BF134B9D46A3F5803A00218B460F46FA
S11301601348144A121A03F0C1FA0F4B002B00D0A3
S113017098470E4B002B00D0984700200021040024
S11301800D000D48002802D00C48AFF3008003F0A6
S113019089FA2000290003F007FA03F06FFA00BF80
S11301A0000008000000042000000000000000001F
S11301B07C000020D40000200000000000000000AB
S11301C0064880470649074A074B9A42BEBF51F882
S11301D0040B42F8040BF8E7FFF7B8FFCD02000068
S11301E05C390000000000207C000020FEE700BF16
S11301F080B582B000AF00F025F878600A4BD3F8E0
S113020008311B0AC3F308033B603B6801337A6877
S1130210B2FBF3F37B60054A7B6813607B68184686
S11302200837BD4680BD00BF00400E4008000020D6
S113023080B400AF024B1846BD465DF8047B70479E
S1130240005A620280B483B000AF164BD3F89430E6
S113025003F00703032B08D0042B02D0022B08D091
S11302600BE0114B1B687B600BE04FF400437B6099
S113027007E00E4B1B687B6003E00D4B1B687B6043
S113028000BF084BD3F800311B0A03F01F030133EE
S11302907A68B2FBF3F318460C37BD465DF8047B6D
S11302A0704700BF00400E40040000200000002002
S11302B00C00002080B400AF034B1B681846BD46F9
S11302C05DF8047B704700BF0000002080B400AFDD
S11302D0074B084A9A60064BD3F88830044A43F423
S11302E07003C2F8883000BFBD465DF8047B7047D8
S11302F000ED00E00000000080B400AF4FF40043C4
S11303001846BD465DF8047B704780B400AF4FF4D7
S11303107A731846BD465DF8047B704780B400AF1D
S1130320034B1B681846BD465DF8047B704700BF4D
S11303300400002080B483B000AF78603960FEE729
S113034080B487B000AFF860B9607A60FB6803F1ED
S11303500473DA00BB6813449B007B617B697A6891
S11303601A6000BF1C37BD465DF8047B704780B43B
S113037085B000AF786039607B6803F10473DA00FC
S11303803B6813449B00FB60FB681B6818461437EA
S1130390BD465DF8047B704780B582B000AF7860DD
S11303A07B681F2B04D94FF496710548FFF7C2FFF1
S11303B001227B6802FA03F318460837BD4680BD64
S11303C01837000080B582B000AF78607868FFF716
S11303D0E3FF034618460837BD4680BD80B500AF2D
S11303E000BF12210348FFF7C2FF0346002BF8D1D8
S11303F000BF80BD04300E4080B500AFFFF7EEFFB4
S1130400034B5B681B0C03F00303DBB2184680BD8F
S113041000300E4080B584B000AF78600123FB60EB
S11304207B68124A934204D80023FB600023BB601C
S113043008E07B680E4A934202D80123BB6001E0C6
S11304400223BB60FA6810210A48FFF779FF094BC1
S1130450D3F8003123F08072BB681B0605491343AF
S1130460C1F8003100BF1037BD4680BD0048E80127
S11304700090D00300400E4080B483B000AF054B21
S11304801B687B607B6818460C37BD465DF8047BAF
S1130490704700BF1000002080B582B000AFFFF7A6
S11304A0D1FE7860064BD3F800311B0A03F01F031A
S11304B001337A6802FB03F318460837BD4680BD52
S11304C000400E4080B582B000AF0F4800F066FBDC
S11304D00346FB70FB78072B05D0092B07D1FFF7E8
S11304E0B1FE78600BE0FFF7C7FF786007E00023F8
S11304F07B6040F69A210548FFF71CFF00BF7B682C
S113050018460837BD4680BD06000E00E4370000DB
S113051080B584B000AF78607B68002B1CD1204884
S113052000F03CFB0346FB7200BFFB7A013B072B48
S113053028D801A252F823F06705000085050000C1
S1130540850500007505000085050000850500008F
S11305506D0500007D05000040F6BA211148FFF743
S1130560E9FE002317E00023FB6013E0FFF784FF9C
S1130570F8600FE0FFF79EFEF8600BE0FFF78CFFDA
S1130580F86007E00023FB6040F6D1210548FFF73F
S1130590D1FE00BFFB6818461037BD4680BD00BFC2
S11305A0B8003200E437000080B584B000AF786052
S11305B03960204B5B6803F04073FB600023BB6031
S11305C012E01D4ABB68DB0013441A793B68DBB2B6
S11305D09A4206D1184ABB6852F833307A689A4274
S11305E006D9BB680133BB60BB68042BE9D900E0C2
S11305F000BFBB68052B07D10323FB6040F6D8314D
S11306000E48FFF797FE05E00B4ABB68DB00134476
S11306105B79FB60FB681B06FB60064B5B6823F0A1
S113062040720449FB6813434B6000BF1037BD465A
S113063080BD00BF00000E40F8370000E437000022
S113064080B582B000AF0E4B1B6C002B14BF01238E
S11306500023FB710A4B41F671321A64FFF7E8FD7F
S1130660034600211846FFF79FFFFB79002B02D0B9
S1130670034B00221A6400BF0837BD4680BD00BF8B
S113068000000E4080B584B000AF786039600C4B38
S11306901B6C002B14BF01230023FB73084B41F692
S11306A071321A6439687868FFF77EFFFB7B002B90
S11306B002D0034B00221A6400BF1037BD4680BD30
S11306C000000E4080B487B000AF78600F237B61D8
S11306D07B6803333B617B69FB60FA683B69934247
S11306E028BF1346BB60BB681B07BB60BB681846CA
S11306F01C37BD465DF8047B7047000080B400AF32
S1130700044B5B6A1B0903F003031846BD465DF8FE
S1130710047B704700400E4080B483B000AF786023
S1130720074B5B6A23F030027B681B0104491343C7
S11307304B6200BF0C37BD465DF8047B704700BFB9
S113074000400E4090B585B000AF78600023BB60D8
S11307507B683C4A93420BD03B4A934208D03B4AC5
S1130760934205D040F6C9413948FFF7E3FD00E064
S113077000BF786800F012FA0346FB607B68314AD8
S113078093420CD0304A934210D0304A934214D151
S1130790304BD3F8803003F00703FB6013E02D4B9C
S11307A0D3F8843003F00703FB600CE0294BD3F843
S11307B0883003F00703FB6005E040F6F841244865
S11307C0FFF7B8FD00BFFB68042B2ED801A252F836
S11307D023F000BF25080000E9070000F10700002E
S11307E001080000F9070000FFF786FDB86024E067
S11307F0FFF794FDB86020E0FFF787FDB8601CE0C8
S1130800FFF7F6FC0446134BD3F800311B0E03F03C
S1130810010301331846FFF7D5FD0346B4FBF3F398
S1130820BB600AE00023BB6007E00023BB6040F626
S11308304A510748FFF77EFD00BFBB6818461437CE
S1130840BD4690BD030020000500240002001E00E8
S1130850E437000000400E4080B483B000AF7860FD
S11308600A4BD3F8443103F00103002B08D100BF35
S1130870064BD3F840217B681340002BF8D100E0ED
S113088000BF0C37BD465DF8047B704700400E4046
S113089080B400AF00BFBD465DF8047B704780B4F0
S11308A000AF00BFBD465DF8047B704780B586B0DD
S11308B000AF78600B46FB7000233B617B681B0A2A
S11308C003F00F03013B092B32D801A252F823F0A5
S11308D0F908000005090000310900003109000091
S11308E0FF0800000B090000150900003109000091
S11308F01F0900002B0900001A4B7B611EE01A4BF4
S11309007B611BE0194B7B6118E0194B7B61012370
S11309103B6113E0174B7B6110233B610EE0164BE8
S11309207B614FF480333B6108E0144B7B6105E04D
S113093041F23C111248FFF7FDFC10E07B681B0BF1
S113094003F01F03FB603B69002B02D03869FFF7FB
S113095083FFFB781A46F9687869FFF7F1FC1837CA
S1130960BD4680BD00400E40B0400E40C0400E4029
S1130970E0400E40E8400E40F0400E4050410E4032
S1130980E437000080B584B000AF78607B6803F47E
S11309907813B3F5A01F7DD0B3F5A01F1AD8B3F513
S11309A0202F50D0B3F5202F08D8B3F5003F4ED0F8
S11309B0B3F5802F38D0002B32D0D8E0B3F5602FB8
S11309C000F0C880B3F5801F00F0C880B3F5402F55
S11309D04CD0CCE0B3F5001F00F08B80B3F5001FC2
S11309E00AD8B3F5D01F00F08980B3F5F01F4CD0BE
S11309F0B3F5B01F5CD0BAE0B3F5381F6AD0B3F5D5
S1130A00381F04D8B3F5101F00F09F80AFE0B3F592
S1130A10401F00F08680B3F5481F00F0A380A6E0D5
S1130A20FFF710FCF860AAE0FFF70CFCF860564BE7
S1130A30D3F80C311B0AC3F308030133FA68B2FB81
S1130A40F3F3FB609BE0FFF7FDFBF86097E0FFF733
S1130A50F9FBF8604C4BD3F808311B0AC3F30803C5
S1130A600133FA68B2FBF3F3FB6088E0FFF7EAFBBB
S1130A70F860454BD3F814311B0A03F01F0301330C
S1130A80FA68B2FBF3F3FB6079E04048FFF75AFEE3
S1130A90F86074E03E48FFF755FEF8603A4BD3F82F
S1130AA0303103F00303FA6822FA03F3FB6066E0D3
S1130AB03648FFF747FEF860334BD3F8203103F094
S1130AC00F031846FFF77EFC0246FB68B3FBF2F304
S1130AD0FB6054E02D48FFF735FEF8602A4BD3F84D
S1130AE020311B0903F00303FA6822FA03F3FB60C5
S1130AF045E02848FFF726FEF86040E02548FFF768
S1130B0021FEF860204BD3F828311B0903F00303BE
S1130B101846FFF757FC0246FB68B3FBF2F3FB6091
S1130B202DE01C48FFF70EFEF860174BD3F8283170
S1130B301B0A03F0030304331846FFF743FC024681
S1130B40FB68B3FBF2F3FB6019E01148FFF7FAFD11
S1130B50F86014E0FFF7B6FCF86010E0FFF78CFCD7
S1130B60F8600CE00020FFF7D3FCF86007E00023F6
S1130B70FB6041F262210848FFF7DCFB00BFFB6821
S1130B8018461037BD4680BD00400E4002001E00CE
S1130B900500240003002000E437000080B584B081
S1130BA000AF78600123FB737B6803F00F03BB6025
S1130BB0BB68013B072B00F2C48001A252F823F06A
S1130BC0E10B0000370C0000670C0000430D00002F
S1130BD0AD0C0000DD0C0000430D0000010D000011
S1130BE05E4BD3F8943003F00703023B052B1ED869
S1130BF001A252F823F000BF1D0C0000170C0000E6
S1130C00110C0000230C00002F0C0000290C000024
S1130C100223FB730EE00323FB730BE00423FB733B
S1130C2008E00B23FB7305E00C23FB7302E00523B0
S1130C30FB7300BF8DE0494BD3F8803003F007030A
S1130C40022B06D0042B07D0012B08D10323FB73FE
S1130C5008E00223FB7305E00A23FB7302E001238F
S1130C60FB7300BF75E03D4BD3F8843003F00703FA
S1130C70013B032B16D801A252F823F08D0C00007F
S1130C80930C00009F0C0000990C00000323FB73DD
S1130C900BE00223FB7308E00A23FB7305E0062341
S1130CA0FB7302E00123FB7300BF52E02B4BD3F82C
S1130CB0883003F00703022B06D0042B07D0012B46
S1130CC008D10323FB7308E00223FB7305E00A2326
S1130CD0FB7302E00123FB7300BF3AE01F4B1B6F61
S1130CE003F00103002B04D0012B05D10923FB736E
S1130CF005E00723FB7302E00123FB7300BF28E038
S1130D00164BD3F85C3103F03003102B0CD0102BAE
S1130D1002D8002B05D010E0202B08D0302B09D0AE
S1130D200BE00123FB730BE00723FB7308E00423B0
S1130D30FB7305E00823FB7302E00123FB7300BF90
S1130D4007E00023FB7341F276610548FFF7F2FAEE
S1130D5000BFFB7B18461037BD4680BD00400E40E7
S1130D60E437000080B58AB000AF78600B46FB70B2
S1130D7003237B62032387F823300023BB61002312
S1130D807B617B68112B19D1FB78042B03D1FFF70E
S1130D9091FA78610BE0FB78052B08D100F0F8F9A3
S1130DA00246BB4B9A4202D900F0F2F978617B69A2
S1130DB0002B03D00021786900F070FF7B6803F0FA
S1130DC00F033B613B69013B072B00F2578101A2F2
S1130DD052F823F0F50D0000010F0000330F00005E
S1130DE07D100000150F0000D50F00007D100000DD
S1130DF0FF0F0000FB78023B0A2B49D801A252F8EE
S1130E0023F000BF310E00003D0E0000490E00002B
S1130E105B0E0000910E0000910E0000910E000088
S1130E20910E0000850E00006D0E0000790E00008A
S1130E3004237B62002387F823302FE003237B62A3
S1130E40012387F8233029E002237B62022387F8F9
S1130E5023309048FFF7DEFA20E001237B6203236E
S1130E6087F823308B48FFF7D5FA17E005237B6218
S1130E70032387F8233011E007237B62062387F8D6
S1130E8023300BE041F234718348FFF753FAFBE05F
S1130E9041F239718048FFF74DFAF5E097F82330B5
S1130EA0062B06D097F8233001220121184600F0C2
S1130EB0BDFAFFF7C5FBFFF7EBFC7B69002B01D004
S1130EC0FFF78CFA754A7B6A53677548FFF75AFD3A
S1130ED003461846FFF79EFAFFF78AF9F860FFF712
S1130EE08BFA03461946F868FFF7CCFB7B69002BA5
S1130EF003D10121002000F0D1FEFFF7D0FCC3E0B4
S1130F00684BBB61FB78062B04D141F275716248D2
S1130F10FFF710FABB69002B01D0BB6900E0624BFC
S1130F20BB61FB78062B04D141F289715A48FFF763
S1130F3001FABB69002B01D0BB6900E05B4BBB61CC
S1130F40FB78013B092B3BD801A252F823F000BFE8
S1130F50790F00007F0F00008F0F0000C10F000009
S1130F60C10F00009F0F0000C10F0000C10F00005F
S1130F70C10F0000BB0F00000023FB6126E001222B
S1130F800121002000F052FA0223FB611EE001223D
S1130F900121012000F04AFA0123FB6116E0FFF76A
S1130FA027F903461846FFF735FA01220221404883
S1130FB0FFF7C6F90323FB6108E00423FB6105E0A6
S1130FC041F2AE713448FFF7B5F95DE0BB69FA69E7
S1130FD01A6059E0FB78072B02D0092B04D007E0F4
S1130FE02E4B00221A6709E02C4B01221A6705E0F8
S1130FF041F638012848FFF79DF945E044E0FB78C5
S1131000013B072B28D801A252F823F02D10000031
S1131010591000005910000043100000591000003E
S11310205910000033100000531000000023FB612E
S113103018E001220121042000F0F8F90123FB61EA
S113104010E001220121022000F0F0F90223FB61EB
S113105008E00323FB6105E041F696010E48FFF723
S113106069F911E00D4BD3F85C3123F03002FB69D0
S11310701B010A491343C1F85C3105E041F66D11C7
S11310800548FFF757F900BF2837BD4680BD00BFAC
S1131090002D31010148E801E437000000400E4012
S11310A000250A0080400E4088400E4084400E40D7
S11310B0B0400E4080B483B000AF78607B68294AAA
S11310C093422FD0274A934210D8274A934221D0E3
S11310D0254A934203D8254A93421BD03AE0244A36
S11310E0934217D0234A934218D033E0224A9342C2
S11310F024D0214A934206D8204A934216D0204A4B
S1131100934217D026E01F4A93421BD01E4A9342B3
S11311101CD01FE01D4BD3F880301CE01B4BD3F8D0
S11311208C3018E0194BD3F8983014E0174BD3F8EF
S11311309C3010E0154BD3F8A0300CE0134BD3F8DF
S1131140A83008E0114BD3F8AC3004E00F4BD3F8CF
S1131150B03000E0002318460C37BD465DF8047B30
S1131160704700BF405DC60080841E0040420F00EF
S113117000093D00C0CF6A0080BA8C010024F4004D
S1131180C0EA21010048E80180D54302B081E00FA4
S113119080B400AF034B1B681846BD465DF8047B62
S11311A0704700BF0C00002080B586B000AF7860A7
S11311B07868FFF77FFF78617B69002B03D07B6938
S11311C0B3F1FF3F04D141F6FF214F48FFF7B2F8D6
S11311D04E4B1B683B614D4A7B6813601120FFF73F
S11311E0DDFC0346052B03D1FFF72AFAFFF750FB7A
S11311F000BF18214648FFF7BAF80346002BF8D180
S11312007B69B3F1FF3F04D141F610313E48FFF74B
S113121091F87B683F4A93420DD03F4A934211D0E4
S11312203E4A934200D012E07B6923F0C06343F04E
S113123080637B610BE07B6923F0C06343F0007340
S11312407B6104E07B6923F0C0637B6100BF1120F4
S1131250FFF7A4FC0346052B02D17868FFF7DAF800
S11312607A683B699A4203D90121786800F016FD37
S11312702B4A7B6913611120FFF790FC0346052B71
S113128026D1FEF7B5FFF860FA687B689A4204D964
S113129041F63C311C48FFF74DF81C4B1B68FA68BB
S11312A09A4204D941F63D311748FFF743F8174BEA
S11312B01B687A689A4204D041F63E311248FFF71F
S11312C039F8FFF799F803461946F868FFF7DAF991
S11312D01448FFF757FB03461846FFF79BF87A6854
S11312E03B699A4203D80121002000F0D7FC112069
S11312F0FFF754FC0346052B01D1FFF7D0FA00BFDA
S11313001837BD4680BD00BFE43700000C00002044
S113131040410E4080841E0000093D0040420F0001
S113132000400E4000250A0090B585B000AF7860FB
S11313301120FFF733FC0346042B04D141F61D4171
S11313403748FEF7F7FF01220021022000F06EF873
S11313507B685B78002B07D17B689B78002B03D1DB
S11313607B68DB78002B04D041F65B412C48FEF708
S1131370E1FF0023FB607B681B7C012B04D14FF44D
S1131380E3512748FEF7D6FF7B681B7C022B01D173
S11313900123FB60234B5B6A23F001022149FB68B4
S11313A013434B627B681B781A4608211E48FEF7DC
S11313B0C7FF7B689B88DB027A68527A1146194A18
S11313C00B43D362174B1B6B03F07F627B68DB8894
S11313D0DB0213437A68927A1A437B681B7ADB0137
S11313E042EA03047B681B7A1846FFF76BF903464D
S11313F00C4A234313637B685B7B1A037B689B7BE8
S11314001B0113437A68D27B1A437B681B7B1B0442
S1131410044913434B6300BF1437BD4690BD00BF5E
S1131420E437000000400E4024400E4080B588B0F0
S113143000AF0346FB710B46BB7113467B71FB790E
S1131440042B3CD801A252F823F000BFA9140000D9
S11314509714000073140000611400008514000048
S113146001237B6102233B610123FB610023BB61F8
S11314702BE004237B6108233B610323FB610223EC
S1131480BB6122E010237B6120233B610523FB61C8
S11314900423BB6119E040237B6180233B61072364
S11314A0FB610623BB6110E04FF480737B614FF452
S11314B000733B610923FB610823BB6105E041F62E
S11314C065514548FEF736FF83E0BB79002B64D0B5
S11314D00023FB73FB79022B1AD1FFF70FF90346A4
S11314E0002B15D13D4BDB6B03F48063002B04D13F
S11314F041F674513848FEF71DFF0123FB73384B46
S11315005B6A03F00103012B02D10120FFF704F908
S1131510334A7B69136600BFB9693248FEF727FF77
S11315200346002BF8D07B79002B52D000BFF96919
S11315302C48FEF71CFF0346002BF8D0FB79022B46
S113154047D1FB7B002B44D0254B5B6A03F001039E
S1131550012B05D101222021022000F087F903E0AC
S11315600021022000F028F9022000F03DF8B860C4
S1131570012200210220FFF759FFB968022000F080
S113158071F8174A7B69136600BFF9691548FEF7BD
S1131590EEFE0346002BF8D01BE0114A3B691366AC
S11315A000BF0F4BD3F890300121BA6901FA02F25F
S11315B01340002BF5D17B79002B0AD000BF084BD8
S11315C0D3F890300121FA6901FA02F21340002B9A
S11315D0F5D12037BD4680BDE437000000300E4011
S11315E000400E4090400E4080B584B000AF0346EA
S11315F0FB71FB79013B032B23D801A252F823F0A2
S113160011160000351600001D16000029160000F2
S1131610124B1B6AC3F30803FB601AE00F4B1B69F0
S113162003F07F03FB6014E00C4B9B6903F07F0322
S1131630FB600EE0094BD3F89C30C3F30A03FB6054
S113164007E00023FB6041F6F1510548FEF772FE06
S113165000BFFB6818461037BD4680BD00400E40F1
S1131660E437000080B584B000AF03463960FB71F5
S1131670FB79013B032B00F28C8001A252F823F08A
S11316809116000045170000D11600000B1700004A
S11316903B68B3F5007F04D341F617614248FEF777
S11316A049FE3B68C3F308033B6000BF1A213F486F
S11316B0FEF75DFE0346002BF8D13D4B1B6A23F475
S11316C0FF7323F001033A493A6813430B6266E05F
S11316D03B687F2B04D941F624613348FEF72AFE88
S11316E03B6803F07F033B6000BF18212F48FEF7DF
S11316F03EFE0346002BF8D12D4B1B6923F07F02DD
S11317002B493B6813430B6149E03B687F2B04D9A9
S113171041F63F612448FEF70DFE3B6803F07F036A
S11317203B6000BF19212148FEF721FE0346002B30
S1131730F8D11F4B9B6923F07F021D493B6813437B
S11317408B612CE01A4BD3F8903003F00403002B88
S113175004D041F64E611448FEF7ECFD144B5B6A6D
S113176023F03003124A43F0100353623B68DB0951
S113177003F00F031846FEF7A5FFF8600C4B1A6B35
S11317800C4B13403A681A430949FB6813430B6333
S113179005E041F668610448FEF7CCFD00BF00BFD8
S11317A01037BD4680BD00BFE437000040410E4005
S11317B000400E4000F8FF0F80B584B000AF034630
S11317C00A46FB711346BB71FB79022B04D04FF41C
S11317D0F4512348FEF7AEFDFEF790FF0346002BBD
S11317E003D14FF44003FB601BE0BB79202B04D0F2
S11317F0302B0AD0002B04D00BE04FF40003FB6025
S11318000FE04FF44003FB600BE04FF44003FB6038
S113181007E0144BFB6041F69B611148FEF78AFD1B
S113182000BF00BF104BD3F89020FB681340FA6848
S11318309A42F7D1FB6803F48003002B0AD00A4BC9
S1131840D3F8A03003F48063002B14BF01230023DA
S1131850DBB200E0012318461037BD4680BD00BF4F
S1131860E4370000FF33E10700400E4080B582B04A
S113187000AF0346FB710B46BB7113467B71FB79CA
S1131880022B15D1BB79002B07D00F4B4FF480628C
S1131890C3F8A8200C4ABB7953667B79002B0DD082
S11318A0BA79FB7911461846FFF786FF034607E02D
S11318B041F6D1610548FEF73DFD00E000BF01237C
S11318C018460837BD4680BD00400E40E43700008E
S11318D080B500AFFEF78CFC00BF80BD80B487B03C
S11318E000AFF860B9607A60FB6803F10473DA0052
S11318F0BB6813449B007B617B697A681A6000BFF4
S11319001C37BD465DF8047B704780B485B000AFDA
S1131910786039607B6803F10473DA003B68134430
S11319209B00FB60FB681B6818461437BD465DF8D6
S1131930047B704780B500AF00BF12210348FFF756
S1131940E4FF0346002BF8D100BF80BD04300E40F5
S113195080B500AFFFF7EEFF034B5B681B0C03F091
S11319600303DBB2184680BD00300E4080B483B060
S113197000AF7860044A7B68D36200BF0C37BD4671
S11319805DF8047B704700BF00300E4080B400AFA8
S1131990034B5B6A1846BD465DF8047B704700BF85
S11319A000300E4080B400AF044B0022C3F8802105
S11319B000BFBD465DF8047B704700BF00400E4089
S11319C080B400AF044B45F60E02C3F8802100BF7B
S11319D0BD465DF8047B704700400E4080B483B080
S11319E000AF0346FB71FB79C3F10203102202FA34
S11319F003F318460C37BD465DF8047B70470000BE
S1131A0090B585B000AF0346FB71FB79002B1BD169
S1131A10484BD3F89030484A13601120FFF7BEF8C2
S1131A2003461A46454B1A70FFF784FF444B5B6824
S1131A301B0CDBB203F00303DAB2424B1A703D4BCA
S1131A401B69414A136070E03E4B1B783C4C1846BE
S1131A50FFF7C4FF03462361364BD3F8803103F00C
S1131A600103FB60FFF7ACFF0023BB60324B1B6834
S1131A7003F00103BA681343BB602F4B1B6803F0E8
S1131A801003BA681343BB602B4B1B6803F040037D
S1131A90BA681343BB60284B1B6803F00403BA689D
S1131AA01343BB60244B1B6803F48073BA6813436D
S1131AB0BB60204ABB681366FFF73CFF204B1B68E2
S1131AC003F01003002B18D000BF1A4BD3F8403199
S1131AD003F08073002BF8D1164A1B4B1B6813616B
S1131AE0164B1B78052B08D1184B1C68FFF730FFE9
S1131AF0034619462046FEF7C5FD104B1B78052BFF
S1131B0005D00E4B1B7819461120FFF72BF90A4B11
S1131B101B6803F00103002B02D1064B02221A6654
S1131B20FB68002B01D0FFF73DFF00BF1437BD4613
S1131B3090BD00BF00400E40A4000020A80000207B
S1131B4000300E40A9000020AC0000200C00002052
S1131B5080B582B000AFFFF7EDFE104B1B681B0A87
S1131B6003F003037B600D4B5B681B0C03F0030362
S1131B703B607A683B689A4206D9084B1B68074A5F
S1131B8043F01003136005E0044B1B68034A23F081
S1131B901003136000BF0837BD4680BD00300E40FF
S1131BA080B483B000AF0C4B1B6803F01003002B10
S1131BB00BD00A4B1B691B0C03F01F037B607B6873
S1131BC0082B02D1064B074A1A6000BF0C37BD46EA
S1131BD05DF8047B704700BF00300E4000400E40AB
S1131BE00C000020C0EA210180B582B000AF03469A
S1131BF0FB71FB79002B02D00020FFF701FFFFF7F8
S1131C00A7FF0B4B1B690A4A43F00403136130BF5F
S1131C10FB79002B03D00120FFF7F2FE03E0FFF76E
S1131C20BFFFFFF755FE00BF0837BD4680BD00BFAC
S1131C3000ED00E080B584B000AF0346FB71FB7992
S1131C40002B02D00020FFF7DBFEFFF781FF114BD2
S1131C50D3F8803103F00103FB60FFF7B1FEFB68AA
S1131C60002B01D0FFF79EFE0B4B1B690A4A43F081
S1131C700403136130BFFB79002B03D00120FFF76D
S1131C80BFFE03E0FFF78CFFFFF722FE00BF103713
S1131C90BD4680BD00400E4000ED00E080B584B03C
S1131CA000AF78600B46FB70154BD3F800311B0A6C
S1131CB003F01F030133BB607B68002B07D1FEF7E1
S1131CC0C1FA0246BB6802FB03F3FB6001E07B68D8
S1131CD0FB600C4B1B78002B09D0FB680A4A93422B
S1131CE005D8FB781946022000F010F804E0FB78D0
S1131CF01946002000F00AF800BF1037BD4680BD29
S1131D0000400E40A0000020FF2C310190B587B0A8
S1131D1000AF03460A46FB711346BB711F4BD3F851
S1131D2000311B0A03F01F0301337B61FEF78AFABB
S1131D303861FFF70DFE0346FB73FA7BFB799A4289
S1131D4028D03B697A6902FB03F3BB60FB79022B61
S1131D500CD1BB68124A934204D940F2B3411148F2
S1131D60FEF7E8FA02213869FEF78CFC0E4CFB7989
S1131D701846FFF733FE03462361BB79002B01D0DD
S1131D80FFF7D8FDFB79002B05D100213869FEF758
S1131D9079FC00E000BF1C37BD4690BD00400E40FA
S1131DA0002D31012038000000300E4080B582B093
S1131DB000AF78600E4B1B6823F440727B685B783D
S1131DC01B020B4913430B607B685B78022B0AD11F
S1131DD0084B5B6A03F00053002B04D040F2ED4142
S1131DE00548FEF7A7FA00BF0837BD4680BD00BF0F
S1131DF000300E4000400E402038000080B400AF98
S1131E0001231846BD465DF8047B704780B582B057
S1131E1000AF0C4BDB6E0B4A43F08073D36600219A
S1131E200948FFF772FD78607B68002B03D004201B
S1131E3000F040FD02E0002000F03CFD00BF083748
S1131E40BD4680BD00300E404C300E4080B58AB097
S1131E5000AF01237B627B6A1B053B62404BDB6C5A
S1131E601B0A03F00F03FB613E4B1B881A463D4BD4
S1131E701B8828335B08134403F12801FB695A1CAF
S1131E8013469B001344B1FBF3F3013BBB61BB69F5
S1131E907B6107233B613A697B69934228BF134600
S1131EA0BB61BB691B06BB61BB6923F0E063002B0C
S1131EB004D040F2CE612C48FEF73CFA3B6A23F48E
S1131EC0E003002B04D040F2CF612748FEF732FA3A
S1131ED0234BDB6C23F0EE62B9693B6A0B43204968
S1131EE01343CB64214BB3F90030002B33DB1F4B7E
S1131EF0B3F90030FB81FA89FB8928335B0813446A
S1131F0003F12802FB6901335900FB6901335B08C3
S1131F100B44B2FBF3F3BB60BB687B6007233B60FD
S1131F203A687B68934228BF1346BB60BB681B01B9
S1131F30BB60BB6823F07003002B04D040F2E76160
S1131F400948FEF7F7F9064B1B6D23F070020449AC
S1131F50BB6813430B6500BF2837BD4680BD00BF77
S1131F6000300E4098000020203800009C00002023
S1131F7080B483B000AF78600B467B807B689AB2F4
S1131F80054B1A80054A7B88138000BF0C37BD4679
S1131F905DF8047B704700BF980000209C0000207F
S1131FA080B582B000AF0346FB71FB79002B02D0F1
S1131FB0012B04D007E0094B094A9A6509E0074B55
S1131FC0084A9A6505E040F213710748FEF7B2F932
S1131FD000BF00BF0837BD4680BD00BF00300E40C3
S1131FE077402057372110B72038000080B584B0DF
S1131FF000AF0346FB710B46BB7113467B71334B39
S1132000D3F88031FB60BB79032B1DD801A252F8B1
S113201023F000BF252000002D2000003720000001
S113202041200000FB68DBB2FB6014E0FB681B0A84
S1132030DBB2FB600FE0FB681B0CDBB2FB600AE069
S1132040FB681B0EFB6006E040F257712048FEF768
S113205071F9002336E07B79002B16D1FB681B0352
S1132060FB60FB6823F47043002B06D040F26271DE
S11320701748FEF75FF9002324E0164BDB6E23F4C8
S113208070421449FB681343CB667B79012B18D14A
S1132090FB681B03FB60FB6823F47043002B06D032
S11320A040F26E710A48FEF745F900230AE0094B35
S11320B0D3F8EC3023F470420649FB681343C1F8AB
S11320C0EC30012318461037BD4680BDB081E00FC7
S11320D02038000000300E4080B588B000AFF860B2
S11320E0B96011461A460B46FB711346BB710023B7
S11320F0FB610023BB61BB791B02FA79002A01D082
S1132100012200E0002213437B617B6940F201124B
S113211093422AD0B3F5817F07D2012B19D0012B2A
S113212047D3B3F5807F50D073E040F2012293424D
S113213027D040F20122934203D8B3F5007F50D058
S113214067E0B3F5407F58D040F20132934224D087
S11321505FE0384BD3F87431FB61FB691B0ADBB2D7
S1132160BB61FB69DBB2FB6159E0324BD3F87431DC
S1132170FB61FB691B0EBB61FB691B0CDBB2FB61E2
S11321804DE02C4BD3F87831FB61FB691B0ADBB2C1
S1132190BB61FB69DBB2FB6141E0264BD3F87831CC
S11321A0FB61FB691B0EBB61FB691B0CDBB2FB61B2
S11321B035E0204BD3F86C31FB61FB691B0ADBB2C1
S11321C0BB61FB69DBB2FB6129E01A4BD3F86C31CC
S11321D0FB61FB691B0EBB61FB691B0CDBB2FB6182
S11321E01DE0144BD3F87031FB61FB691B0ADBB2B1
S11321F0BB61FB69DBB2FB6111E00E4BD3F87031BC
S1132200FB61FB691B0EBB61FB691B0CDBB2FB6151
S113221005E040F2D3710848FEF78CF800BFFB6874
S1132220FA691A60BB68BA691A6000BF2037BD46F4
S113223080BD00BFB081E00F2038000080B584B0BD
S113224000AF0346FB7100BF364B9B6F03F00103E5
S1132250002BF9D1334B1B6C03F00303FB60FB68C9
S1132260002B04D001220D212F48FFF737FBFB6818
S1132270DBB2FA799A4208D1FB79002B4ED10022C5
S11322800D212948FFF72AFB48E0FB68032B02D005
S1132290FB68002B20D1FB79022B02D0FB79012BA8
S11322A01AD14FF40020FFF761FB00BF1D4B9B6F59
S11322B003F00103002BF9D11A4B1B6C23F0030329
S11322C0184A43F00103136400BFFFF75FFB0346A2
S11322D003F40023002BF8D000BF124B9B6F03F0D4
S11322E00103002BF9D10F4B1B6C23F00302FB7984
S11322F00C4913430B6400BF0A4B9B6F03F00103AB
S1132300002BF9D1FB79002B14BF01230023DBB28E
S11323101A460D210448FFF7E1FA00E000BF103728
S1132320BD4680BD00300E4054300E4080B584B0B0
S113233000AF78606B4B02229A636A4B9B6B03F08D
S11323400F03022B06D040F66D016748FDF7F2FF3C
S11323500023C3E0FFF752FD7B681B89C82B04D917
S113236040F677016048FDF7E5FF7B689A887B6853
S11323701B899A4204D940F678015B48FDF7DAFFDD
S11323807B68B3F90C30C82B04DD40F6790156485C
S1132390FDF7D0FF7B685B78012B09D17B689B88B4
S11323A0C82B12D940F67D014F48FDF7C3FF0CE05E
S11323B07B685B78022B08D17B689B880A2B04D945
S11323C040F682014848FDF7B5FF7B68DB8842F29E
S11323D01072934204D940F68A014348FDF7AAFFDC
S11323E07B68DB884A2B02D80023FB6015E07B68FE
S11323F0DB88B3F5FA7F03D24FF08053FB600CE027
S11324007B68DB8840F6C312934203D84FF0005335
S1132410FB6002E04FF04053FB60324BDB6C23F077
S1132420405323F001037A68B2F90C20002A01DB3F
S1132430012100E00021FA680A432A491343CB64CE
S1132440284BD3F8EC30274A43F44073C2F8EC30FD
S1132450FFF7DCFC7B681B891A467B68B3F90C30F8
S113246019461046FFF784FD7B689A881F4B1A8033
S11324707B689B88184600F0A9F97B689B7B18460B
S1132480FFF78EFD7B685B8801220121184600F06E
S113249031F8034683F00103DBB2002B06D040F68B
S11324A0C1011148FDF746FF002317E00D4BDB6B1C
S11324B00C4A43F48063D3637B685B781846FFF768
S11324C0BDFE7B689B7A202B01D1012300E0002311
S11324D01A4605210648FFF701FA0123184610376A
S11324E0BD4680BD00300E40203800009A00002018
S11324F03C300E4090B595B000AF78600B46FB7051
S11325001346BB700023FB6400237B6407F12403A0
S113251000221A605A609A6007F1180300221A60B8
S11325205A609A6007F10C0300221A605A609A609C
S113253007F1080300210A461A800A469A707B684C
S1132540B3F5E16F06D37B6840F6B832934201D805
S1132550012300E0002387F8433097F8433003F069
S1132560010387F8433097F8433083F00103DBB26B
S1132570002B06D040F606119148FDF7DBFE002340
S113258019E17B68B3F5E16F8CBF0123002387F861
S1132590423097F84230002B0AD04FF4E163FB64D9
S11325A040F6B8337B647A6CFB6CD31ABB6409E0E5
S11325B04FF49663FB644FF4E1637B647A6CFB6CC9
S11325C0D31ABB6497F84230002B0BD07D4BD3F861
S11325D068313B623B6A1B0E7B613B6A1B0CDBB2BE
S11325E03B620AE0774BD3F868313B623B6A1B0AD3
S11325F0DBB27B613B6ADBB23B62734BDB6C1B0F70
S1132600DBB203F00303DBB23B723B7A97F8422060
S113261007F10C0107F11800FFF75EFD6A4BD3F8D0
S1132620EC301B0ADBB203F00303DBB27B727C7A6F
S113263097F8422007F10C03191D07F11803181D20
S11326402346FFF749FD7A68FB6CD31A79693A6A25
S11326508A1A02FB03F2BB6CB2FBF3F3FB62FA6A65
S11326603B6A1344FB627A68FB6CD31AF968BA6953
S11326708A1A02FB03F2BB6CB2FBF3F37B627A6A45
S1132680BB6913447B627A68FB6CD31A3969FA69B3
S11326908A1A02FB03F2BB6CB2FBF3F3BB62BA6AA5
S11326A0FB691344BB62FA6A7B699A4213D8FA6ADB
S11326B03B6A9A420FD3BA6A3B699A420BD8BA6A08
S11326C0FB699A4207D37A6AFB689A4203D87A6A0A
S11326D0BB699A4206D240F654113948FDF72AFEE6
S11326E0002368E0BB78002B12D0374BDB6D23F45A
S11326F0FE4323F00203FA6A1202134397F84220BE
S1132700002A01D0022200E000222F491343CB65A6
S1132710FB78002B4ED0397A97F8423000221846C5
S1132720FFF764FC034683F00103DBB2002B06D001
S113273040F663112248FDF7FDFD00233BE0797A62
S113274097F8423001221846FFF750FC034683F005
S11327500103DBB2002B06D040F66B111848FDF7DD
S1132760E9FD002327E07B6AFB63BB6ABB63BA6BAA
S1132770FB6B934238BF13467B627B6A7B63E72320
S11327803B633A6B7B6B934228BF13467B620E4BD1
S11327905B6E23F4FF7323F001037A6A5200134340
S11327A097F84220002A01D0012200E000220649C5
S11327B013434B66012318465437BD4690BD00BFF2
S11327C020380000B081E00F00300E4080B584B0A6
S11327D000AF78600023FB60344B1B6F03F00703EA
S11327E0BB60324BDB6C03F00103002B14D0BB68DD
S11327F0012B11D97B68132B02D80423FB603DE025
S11328007B68132B05D97B68272B02D80823FB6030
S113281034E01023FB6031E0244BDB6C03F0010354
S1132820002B14D1BB68012B11D87B68092B02D86B
S11328300423FB6022E07B68092B05D97B68132BFA
S113284002D80823FB6019E01023FB6016E0174B45
S1132850DB6C03F00103002B0BD0BB68012B08D801
S11328607B68272B02D80823FB6007E01023FB605A
S113287004E040F6A9110E48FDF75CFDFB68013B3E
S1132880FB60FB681A02FB681B031343FB60074BE6
S1132890DB6C23F47F420549FB681343CB64FFF7E9
S11328A0D5FA00BF1037BD4680BD00BF00300E40D2
S11328B02038000080B584B000AF0346FB710021CE
S11328C01148FFF722F8F860FB68002B02D1FB796E
S11328D0012B07D9FB68002B04D140F6C8110B4823
S11328E0FDF728FD0A4B1B6F23F00702FB7908490B
S11328F013430B67074B1B881846FFF767FF00BF9E
S11329001037BD4680BD00BF4C300E40203800005B
S113291000300E409A00002080B485B000AF78608B
S113292039607B6803F1C063FB60FB683A681A6036
S113293000BF1437BD465DF8047B704780B485B092
S113294000AF786039607B6803F18063FB60FB68EB
S11329503A681A6000BF1437BD465DF8047B7047BF
S113296080B584B000AFF860B9607A60B968F8687F
S1132970FFF7E4FF7968F868FFF7CEFF00BF103770
S1132980BD4680BD80B582B000AF03463960FB719F
S1132990FB79002B38D0FB79012B32D0FB79022B49
S11329A02CD0FB79032B26D0FB79042B21D0FB7987
S11329B0052B1BD0FB79062B16D0FB79072B11D0E6
S11329C0FB79082B0CD0FB79092B06D0FB790A2B59
S11329D001D107231AE0002318E04FF4404315E027
S11329E00F2313E0002311E000230FE04FF6FF73E1
S11329F00CE000230AE04FF47F4307E040F6FF7346
S1132A0004E04FF6C07301E040F2FF333A6813412B
S1132A1003F00103002B04D140F2DD310C48FDF733
S1132A2089FCFA7913465B0013441B010C3303F150
S1132A30804303F5204301213A6801FA02F211466A
S1132A401846FFF77BFF00BF0837BD4680BD00BFB7
S1132A503438000080B582B000AF03463960FB71A2
S1132A60FB79002B38D0FB79012B32D0FB79022B78
S1132A702CD0FB79032B26D0FB79042B21D0FB79B6
S1132A80052B1BD0FB79062B16D0FB79072B11D015
S1132A90FB79082B0CD0FB79092B06D0FB790A2B88
S1132AA001D107231AE0002318E04FF4404315E056
S1132AB00F2313E0002311E000230FE04FF6FF7310
S1132AC00CE000230AE04FF47F4307E040F6FF7375
S1132AD004E04FF6C07301E040F2FF333A6813415B
S1132AE003F00103002B04D140F20C410C48FDF724
S1132AF021FCFA7913465B0013441B010C3303F1E8
S1132B00804303F5204301213A6801FA02F2114699
S1132B101846FFF701FF00BF0837BD4680BD00BF60
S1132B203438000080B582B000AF03463960FB71D1
S1132B30FB79002B1DD0FB79012B1AD0FB79022BDA
S1132B4017D0FB79032B14D0FB79042B16D0FB7917
S1132B50052B0ED0FB79062B10D0FB79072B0DD05B
S1132B60FB79082B05D0FB79092B02D0FB790A2BC2
S1132B7004D13B6823F00113002B03D083210B48BD
S1132B80FDF7D8FBFA7913465B0013441B0103F1EC
S1132B90804303F520433A684FF001111846FFF7CC
S1132BA0DFFE00BF0837BD4680BD00BF9838000077
S1132BB080B584B000AFB9607B600346FB731346F5
S1132BC0BB73FB7B002B38D0FB7B012B32D0FB7B10
S1132BD0022B2CD0FB7B032B26D0FB7B042B21D098
S1132BE0FB7B052B1BD0FB7B062B16D0FB7B072B1B
S1132BF011D0FB7B082B0CD0FB7B092B06D0FB7B75
S1132C000A2B01D107231AE0002318E04FF44043B4
S1132C1015E00F2313E0002311E000230FE04FF62B
S1132C20FF730CE000230AE04FF47F4307E040F613
S1132C30FF7304E04FF6C07301E040F2FF33BA685B
S1132C40134103F00103002B04D140F2131139485E
S1132C50FDF770FBBB7B002B0DD07B68002B05D0F0
S1132C60FB7BB9681846FFF7F5FE04E0FB7BB96807
S1132C701846FFF787FEBB68072B20D82E49FA7B3E
S1132C8013465B0013441B010B4404331A68BB68EE
S1132C909B000F2101FA03F3DB431340B97BBA68AD
S1132CA0920001FA02F211462348FA7B19431346B3
S1132CB05B0013441B0103440433196025E01E49DF
S1132CC0FA7B13465B0013441B010B4408331A6858
S1132CD0BB6803F18043083B9B000F2101FA03F317
S1132CE0DB4302EA0301BA7BBB6803F18043083B80
S1132CF09B0002FA03F31048FA7B194313465B0066
S1132D0013441B01034408331960BB7B002B0DD112
S1132D107B68002B05D0FB7BB9681846FFF79AFE49
S1132D2004E0FB7BB9681846FFF72CFE00BF1037A0
S1132D30BD4680BD9838000000A0004080B483B038
S1132D4000AF786039607B683A689A6200BF0C37DC
S1132D50BD465DF8047B704780B582B000AF7860F3
S1132D600B46FB707B680A4A934203D0EA21094868
S1132D70FDF7E0FAFB78002B03D07B6801225A6050
S1132D8002E07B6802225A6000BF0837BD4680BD5E
S1132D9000600440AC38000080B584B000AF7860B7
S1132DA039600023FB607B68374A934204D04FF4B8
S1132DB0A5713648FDF7BEFA3B681B7883F0010322
S1132DC0DBB2002B08D07B689B6803F00103002B67
S1132DD002D07B6802225A603B685B78002B03D0E8
S1132DE0FB6843F48053FB603B689B78002B03D162
S1132DF03B68DB68002B07D0FB6843F40073FB607F
S1132E003B68DA687B681A613B68DB78002B03D087
S1132E10FB6843F48073FB603B681B79002B03D091
S1132E20FB6843F04003FB603B685B79002B03D0F5
S1132E30FB6843F08003FB603B689B799B001A4668
S1132E40FB681343FB603B68DB791B011A46FB6894
S1132E501343FB603B681B7A1A46FB681343FB6011
S1132E607B68FA681A603B681B78002B08D07B6883
S1132E709B6803F00103002B02D17B6801225A6096
S1132E8000BF1037BD4680BD00600440AC38000070
S1132E9080B582B000AF78607B681E225A607B6880
S1132EA000221A607B6800221A617B6800225A6142
S1132EB07B6800229A617B680022DA617B680022C9
S1132EC0DA621F217868FFF739FF00BF044B5B6BA0
S1132ED003F00203002BF9D100BF0837BD4680BDC3
S1132EE00060044080B500AF00F07CFA00F028FADE
S1132EF000F082F800F0A0F80249034800F006F858
S1132F0000BF80BDCDCCCC3D6666464080B58CB05C
S1132F1000AF786039603B687B6100233B7200231B
S1132F207B7201233B7300237B731C23BB7200233E
S1132F30FB727B683B61002387F8203097F82030D0
S1132F403B76012387F828300123FB6102237B624F
S1132F500423FB6207F108031946034800F0A8F8AC
S1132F6000BF3037BD4680BD0060044080B582B0EC
S1132F7000AF00F01BFA034603F00403002B03D157
S1132F8068210E48FDF7D6F9042000F0F9F900F0A5
S1132F90A5FA7860786800F05FFA7B68032B05D89F
S1132FA07B680133184600F037FA02E0002000F095
S1132FB033FA00BF0837BD4680BD00BFC4380000E7
S1132FC080B500AF012000F0DBF97F210248FDF756
S1132FD0B1F900BF80BD00BFC438000080B500AFA8
S1132FE0022000F0CDF98D210248FDF7A3F900BFBE
S1132FF080BD00BFC438000080B500AF01210B487C
S1133000FDF754FC002200210120FEF70FFA0022F4
S113301000210020FEF70AFA0A210548FDF7A2FE66
S113302001210448FDF742FC00BF80BD404105007A
S113303002001E0000250A0080B500AF01210C48E3
S1133040FDF734FC00210520FFF76CFD002304226A
S113305004210520FFF7ACFD00210520FFF762FDE8
S11330600023042205210520FFF7A2FD00BF80BD37
S113307000350A0080B483B000AF0346FB7197F9B2
S11330800730002B0BDBFB7903F01F02074997F98C
S113309007305B09012000FA02F241F8232000BF47
S11330A00C37BD465DF8047B704700BF00E100E0CB
S11330B080B586B000AF786039607B68534A93422C
S11330C003D101215248FDF7F1FB0021786800F09B
S11330D0ABF87B6801225A6000BF7B685B6B002BF6
S11330E0FBD17B689B6803F00103002B03D14C21C7
S11330F04848FDF71FF97B6802225A600023FB72DF
S11331000123BB723B681B787B723B685B783B7224
S113311000233B7300237B7300233B740323BB73A3
S11331200323FB737868FFF7B3FE07F1080319461E
S11331307868FFF731FE00BF7B685B6B002BFBD127
S11331403B68D3ED027A9FED347A67EE877AFCEE22
S1133150E77A17EE902A7B681A613B68D3ED037A0D
S11331609FED2D7A67EE877AFCEEE77A17EE902AC8
S11331707B685A617B6807229A617B680722DA615F
S11331803B689A783B68DB781343DBB21A467B686A
S11331905A643B681B791A463B685B795B001343AE
S11331A01A467B681A647B681A6A7B689A623B6871
S11331B01B7C1A463B681B7E5B001A433B6893F8F2
S11331C020309B001A437B68DA6200BF7B685B6B2C
S11331D0002BFBD13B685B69104A13603B68DB69D9
S11331E00F4A13603B685B6A0E4A13601B20FFF7AB
S11331F041FF7B689B6803F00103002B02D004208D
S113320000F00AF900BF1837BD4680BD00600440D5
S113321080061600E038000000007A44B000002068
S1133220B4000020B800002080B582B000AF786000
S11332300B46FB7000BF7B685B6B002BFBD1FB78FC
S1133240002B08D07B689B6803F00103002B02D19C
S1133250042000F0E1F8FB7883F00103DBB2002BDB
S113326008D07B689B6803F00103002B02D0042084
S113327000F0F2F8FB7819467868FFF76DFD00BF9F
S11332807B685B6B002BFBD100BF0837BD4680BD5C
S113329080B582B000AF72B6244B1A6A234BDB6A46
S11332A013407B60214A7B6893627B6803F00103CF
S11332B0002B0ED01E4B1B68184600F04DF81B4B1C
S11332C01B6A03F00103002B03D0B2211948FDF758
S11332D031F87B6803F00203002B0ED0164B1B68F9
S11332E0184600F039F8114B1B6A03F00203002B57
S11332F003D0B7210F48FDF71DF87B6803F00403E2
S1133300002B0ED00D4B1B68184600F025F8074B18
S11333101B6A03F00403002B03D0BC210548FDF70E
S113332009F862B600BF0837BD4680BD006004409E
S1133330B0000020E0380000B4000020B8000020F5
S113334080B400AF034B00221A6000BFBD465DF895
S1133350047B7047BC00002080B483B000AF786069
S113336072B6064B1A687B681343044A136062B64C
S113337000BF0C37BD465DF8047B7047BC000020DD
S113338080B483B000AF786072B67B68DA43064BD2
S11333901B681340044A136062B600BF0C37BD4675
S11333A05DF8047B704700BFBC00002080B400AF10
S11333B0034B1B681846BD465DF8047B704700BF8D
S11333C0BC00002080B400AF054B1B69044A23F005
S11333D00403136130BF00BFBD465DF8047B704732
S11333E000ED00E080B483B000AF00237B6007E011
S11333F0084A7B68002142F823107B6801337B6014
S11334007B68042BF4DD00BF0C37BD465DF8047BFC
S1133410704700BFC000002080B582B000AF786064
S11334200B4A7B6852F823305A1C09497B6841F8DF
S11334302320074A7B6852F82330092B03DD3F2100
S11334400448FCF777FF00BF0837BD4680BD00BFC6
S1133450C00000200039000080B582B000AF786061
S11334600B4A7B6852F823305A1E09497B6841F89D
S11334702320074A7B6852F82330002B03DA5221B9
S11334800448FCF757FF00BF0837BD4680BD00BFA6
S1133490C00000200039000080B500AF0E4B1B684F
S11334A0002B16DC0C4B5B68002B12DC0A4B9B6870
S11334B0002B02DDFFF786FF0CE0074BDB68002BD7
S11334C003DD0120FEF790FB04E00120FEF7B2FBD0
S11334D000E000BF80BD00BFC000002080B483B006
S11334E000AF00237B600AE00A4A7B6852F823306D
S11334F0002B01D07B6806E07B6801337B607B682E
S1133500042BF1DD042318460C37BD465DF8047B1B
S1133510704700BFC000002080B400AF044BDB6CD8
S11335201B0EDBB21846BD465DF8047B704700BF36
S1133530B081E00F80B582B000AF164B01225A640F
S1133540FFF7EAFF0346FB71FB79002B0CD1124B0A
S11335504AF6E8521A60114B1B68104A43F0040300
S113356013600D4B00221A60FB79012B05D80C4B1C
S11335701B680B4A43F4005313600A4B1B6A23F481
S11335804413084A43F48813136200BF0837BD4646
S113359080BD00BF00000E4090310E4098310E40B7
S11335A064310E4000400E40B0B58CB000AF2F4BDC
S11335B007F11C040FCB84E80F002D4B07F108041E
S11335C01D460FCD0FC42B682380FFF7B3FF0023E4
S11335D03B7100237B7107F11C031846FEF7A6FE1E
S11335E002237B713B1D1846FEF7E0FB07F108033D
S11335F01846FDF799FE1F48FDF7D6FD012201216B
S11336000320FDF713FF05211120FDF7ABFB00227A
S113361000210220FDF70AFFFFF764FC0121164890
S1133620FFF702FEFFF7C2FE0346002B01D1FFF7AE
S113363033FFFFF7BBFEF862FB6A002BF2D0FB6A94
S113364003F00403002B01D0FFF790FCFB6A03F0A6
S11336500103002B01D0FFF7B3FCFB6A03F0020364
S1133660002BDFD0FFF7BAFCDCE700BF28390000ED
S11336703839000080BA8C010060044008B5074B5B
S1133680044613B10021AFF30080054B1868836A28
S113369003B19847204600F031F800BF0000000055
S11336A04C39000070B50D4E0D4CA41BA410002520
S11336B0A54209D10B4E0C4C00F022F8A41BA41017
S11336C00025A54205D170BD56F82530984701352F
S11336D0EEE756F8253098470135F2E774000020EC
S11336E07400002074000020780000200244034687
S11336F0934200D1704703F8011BF9E7FEE700BFCE
S1133700F8B500BFF8BC08BC9E467047F8B500BFCA
S1133710F8BC08BC9E467047633A5C73696C696385
S11337206F6E6C6162735C73696D706C69636974EC
S11337307973747564696F5C76345C646576656C02
S11337406F7065725C73646B735C6765636B6F5FEA
S113375073646B5F73756974655C76322E365C7066
S11337606C6174666F726D5C656D6C69625C696EC8
S1133770635C656D5F636F6D6D6F6E2E6800000036
S1133780633A5C73696C69636F6E6C6162735C73DA
S1133790696D706C696369747973747564696F5C5D
S11337A076345C646576656C6F7065725C73646BAB
S11337B0735C6765636B6F5F73646B5F7375697468
S11337C0655C76322E365C706C6174666F726D5C0B
S11337D0656D6C69625C696E635C656D5F636D7574
S11337E02E6800002E2E2F656D6C69622F656D5F4B
S11337F0636D752E6300000040787D0100000000B9
S1133800005A620200010000C0CF6A0002000000FA
S1133810809FD50002010000002D3101020200004A
S11338202E2E2F656D6C69622F656D5F656D752E2B
S113383063000000633A5C73696C69636F6E6C616A
S113384062735C73696D706C6963697479737475A0
S113385064696F5C76345C646576656C6F70657200
S11338605C73646B735C6765636B6F5F73646B5FDE
S113387073756974655C76322E365C706C6174663F
S11338806F726D5C656D6C69625C696E635C656DBD
S11338905F6770696F2E68002E2E2F656D6C6962EC
S11338A02F656D5F6770696F2E6300002E2E2F6584
S11338B06D6C69622F656D5F6C6574696D65722EE0
S11338C0630000002E2E2F7372632F536F75726383
S11338D0655F66696C65732F6170702E630000000C
S11338E02E2E2F7372632F536F757263655F666933
S11338F06C65732F6C6574696D65722E63000000CE
S11339002E2E2F7372632F536F757263655F666912
S11339106C65732F736C6565705F726F7574696E17
S113392065732E63000000000002080705000A000A
S1133930C8000000FFFF010001000000A0006801B2
S11339400A200706020A04070000000014000020F1
S1073950000000006F
S10B3954F8C7FF7F0100000029
S113395C005A620200800000C0EA2101C0EA210181
S113396CC0EA21010000000000000000000000007B
S113397C0000000000000000000000000000000037
S113398C0000000000000000000000000000000027
S113399C0000000000000000000000000000000017
S11339AC0000000000000000000000000000000007
S11339BC00000000000000000000000000000000F7
S10F39CC00000000310100000D010000AB
S90301C13A
